{
	"EthGlobal/smart-contract/example6551.sol": {
		"ExampleERC6551Account": {
			"abi": [
				{
					"inputs": [
						{
							"internalType": "uint256",
							"name": "_size",
							"type": "uint256"
						},
						{
							"internalType": "uint256",
							"name": "_start",
							"type": "uint256"
						},
						{
							"internalType": "uint256",
							"name": "_end",
							"type": "uint256"
						}
					],
					"name": "InvalidCodeAtRange",
					"type": "error"
				},
				{
					"anonymous": false,
					"inputs": [
						{
							"indexed": true,
							"internalType": "address",
							"name": "target",
							"type": "address"
						},
						{
							"indexed": true,
							"internalType": "uint256",
							"name": "value",
							"type": "uint256"
						},
						{
							"indexed": false,
							"internalType": "bytes",
							"name": "data",
							"type": "bytes"
						}
					],
					"name": "TransactionExecuted",
					"type": "event"
				},
				{
					"inputs": [
						{
							"internalType": "address",
							"name": "to",
							"type": "address"
						},
						{
							"internalType": "uint256",
							"name": "value",
							"type": "uint256"
						},
						{
							"internalType": "bytes",
							"name": "data",
							"type": "bytes"
						}
					],
					"name": "executeCall",
					"outputs": [
						{
							"internalType": "bytes",
							"name": "result",
							"type": "bytes"
						}
					],
					"stateMutability": "payable",
					"type": "function"
				},
				{
					"inputs": [
						{
							"internalType": "bytes32",
							"name": "hash",
							"type": "bytes32"
						},
						{
							"internalType": "bytes",
							"name": "signature",
							"type": "bytes"
						}
					],
					"name": "isValidSignature",
					"outputs": [
						{
							"internalType": "bytes4",
							"name": "magicValue",
							"type": "bytes4"
						}
					],
					"stateMutability": "view",
					"type": "function"
				},
				{
					"inputs": [],
					"name": "nonce",
					"outputs": [
						{
							"internalType": "uint256",
							"name": "",
							"type": "uint256"
						}
					],
					"stateMutability": "view",
					"type": "function"
				},
				{
					"inputs": [],
					"name": "owner",
					"outputs": [
						{
							"internalType": "address",
							"name": "",
							"type": "address"
						}
					],
					"stateMutability": "view",
					"type": "function"
				},
				{
					"inputs": [
						{
							"internalType": "bytes4",
							"name": "interfaceId",
							"type": "bytes4"
						}
					],
					"name": "supportsInterface",
					"outputs": [
						{
							"internalType": "bool",
							"name": "",
							"type": "bool"
						}
					],
					"stateMutability": "pure",
					"type": "function"
				},
				{
					"inputs": [],
					"name": "token",
					"outputs": [
						{
							"internalType": "uint256",
							"name": "chainId",
							"type": "uint256"
						},
						{
							"internalType": "address",
							"name": "tokenContract",
							"type": "address"
						},
						{
							"internalType": "uint256",
							"name": "tokenId",
							"type": "uint256"
						}
					],
					"stateMutability": "view",
					"type": "function"
				},
				{
					"stateMutability": "payable",
					"type": "receive"
				}
			],
			"devdoc": {
				"kind": "dev",
				"methods": {
					"isValidSignature(bytes32,bytes)": {
						"details": "Should return whether the signature provided is valid for the provided data",
						"params": {
							"hash": "Hash of the data to be signed",
							"signature": "Signature byte array associated with _data"
						}
					},
					"supportsInterface(bytes4)": {
						"details": "Returns true if this contract implements the interface defined by `interfaceId`. See the corresponding https://eips.ethereum.org/EIPS/eip-165#how-interfaces-are-identified[EIP section] to learn more about how these ids are created. This function call must use less than 30 000 gas."
					}
				},
				"version": 1
			},
			"evm": {
				"assembly": "    /* \"EthGlobal/smart-contract/example6551.sol\":718:2618  contract ExampleERC6551Account is IERC165, IERC1271, IERC6551Account {... */\n  mstore(0x40, 0x80)\n  callvalue\n  dup1\n  iszero\n  tag_1\n  jumpi\n  0x00\n  dup1\n  revert\ntag_1:\n  pop\n  dataSize(sub_0)\n  dup1\n  dataOffset(sub_0)\n  0x00\n  codecopy\n  0x00\n  return\nstop\n\nsub_0: assembly {\n        /* \"EthGlobal/smart-contract/example6551.sol\":718:2618  contract ExampleERC6551Account is IERC165, IERC1271, IERC6551Account {... */\n      mstore(0x40, 0x80)\n      jumpi(tag_1, lt(calldatasize, 0x04))\n      shr(0xe0, calldataload(0x00))\n      dup1\n      0x9e5d4c49\n      gt\n      tag_9\n      jumpi\n      dup1\n      0x9e5d4c49\n      eq\n      tag_6\n      jumpi\n      dup1\n      0xaffed0e0\n      eq\n      tag_7\n      jumpi\n      dup1\n      0xfc0c546a\n      eq\n      tag_8\n      jumpi\n      0x00\n      dup1\n      revert\n    tag_9:\n      dup1\n      0x01ffc9a7\n      eq\n      tag_3\n      jumpi\n      dup1\n      0x1626ba7e\n      eq\n      tag_4\n      jumpi\n      dup1\n      0x8da5cb5b\n      eq\n      tag_5\n      jumpi\n      0x00\n      dup1\n      revert\n    tag_1:\n      jumpi(tag_2, calldatasize)\n      stop\n    tag_2:\n      0x00\n      dup1\n      revert\n        /* \"EthGlobal/smart-contract/example6551.sol\":2001:2208  function supportsInterface(bytes4 interfaceId) public pure returns (bool) {... */\n    tag_3:\n      callvalue\n      dup1\n      iszero\n      tag_12\n      jumpi\n      0x00\n      dup1\n      revert\n    tag_12:\n      pop\n      tag_13\n      tag_14\n      calldatasize\n      0x04\n      tag_15\n      jump\t// in\n    tag_14:\n      tag_16\n      jump\t// in\n    tag_13:\n      mload(0x40)\n        /* \"#utility.yul\":470:484   */\n      swap1\n      iszero\n        /* \"#utility.yul\":463:485   */\n      iszero\n        /* \"#utility.yul\":445:486   */\n      dup2\n      mstore\n        /* \"#utility.yul\":433:435   */\n      0x20\n        /* \"#utility.yul\":418:436   */\n      add\n        /* \"EthGlobal/smart-contract/example6551.sol\":2001:2208  function supportsInterface(bytes4 interfaceId) public pure returns (bool) {... */\n    tag_17:\n      mload(0x40)\n      dup1\n      swap2\n      sub\n      swap1\n      return\n        /* \"EthGlobal/smart-contract/example6551.sol\":2216:2615  function isValidSignature(bytes32 hash, bytes memory signature)... */\n    tag_4:\n      callvalue\n      dup1\n      iszero\n      tag_19\n      jumpi\n      0x00\n      dup1\n      revert\n    tag_19:\n      pop\n      tag_20\n      tag_21\n      calldatasize\n      0x04\n      tag_22\n      jump\t// in\n    tag_21:\n      tag_23\n      jump\t// in\n    tag_20:\n      mload(0x40)\n      not(sub(shl(0xe0, 0x01), 0x01))\n        /* \"#utility.yul\":1785:1818   */\n      swap1\n      swap2\n      and\n        /* \"#utility.yul\":1767:1819   */\n      dup2\n      mstore\n        /* \"#utility.yul\":1755:1757   */\n      0x20\n        /* \"#utility.yul\":1740:1758   */\n      add\n        /* \"EthGlobal/smart-contract/example6551.sol\":2216:2615  function isValidSignature(bytes32 hash, bytes memory signature)... */\n      tag_17\n        /* \"#utility.yul\":1623:1825   */\n      jump\n        /* \"EthGlobal/smart-contract/example6551.sol\":1724:1993  function owner() public view returns (address) {... */\n    tag_5:\n      callvalue\n      dup1\n      iszero\n      tag_26\n      jumpi\n      0x00\n      dup1\n      revert\n    tag_26:\n      pop\n      tag_27\n      tag_28\n      jump\t// in\n    tag_27:\n      mload(0x40)\n      sub(shl(0xa0, 0x01), 0x01)\n        /* \"#utility.yul\":1994:2049   */\n      swap1\n      swap2\n      and\n        /* \"#utility.yul\":1976:2050   */\n      dup2\n      mstore\n        /* \"#utility.yul\":1964:1966   */\n      0x20\n        /* \"#utility.yul\":1949:1967   */\n      add\n        /* \"EthGlobal/smart-contract/example6551.sol\":1724:1993  function owner() public view returns (address) {... */\n      tag_17\n        /* \"#utility.yul\":1830:2056   */\n      jump\n        /* \"EthGlobal/smart-contract/example6551.sol\":860:1294  function executeCall(... */\n    tag_6:\n      tag_31\n      tag_32\n      calldatasize\n      0x04\n      tag_33\n      jump\t// in\n    tag_32:\n      tag_34\n      jump\t// in\n    tag_31:\n      mload(0x40)\n      tag_17\n      swap2\n      swap1\n      tag_36\n      jump\t// in\n        /* \"EthGlobal/smart-contract/example6551.sol\":831:851  uint256 public nonce */\n    tag_7:\n      callvalue\n      dup1\n      iszero\n      tag_37\n      jumpi\n      0x00\n      dup1\n      revert\n    tag_37:\n      pop\n      tag_38\n      sload(0x00)\n      dup2\n      jump\n    tag_38:\n      mload(0x40)\n        /* \"#utility.yul\":3917:3942   */\n      swap1\n      dup2\n      mstore\n        /* \"#utility.yul\":3905:3907   */\n      0x20\n        /* \"#utility.yul\":3890:3908   */\n      add\n        /* \"EthGlobal/smart-contract/example6551.sol\":831:851  uint256 public nonce */\n      tag_17\n        /* \"#utility.yul\":3771:3948   */\n      jump\n        /* \"EthGlobal/smart-contract/example6551.sol\":1302:1716  function token()... */\n    tag_8:\n      callvalue\n      dup1\n      iszero\n      tag_42\n      jumpi\n      0x00\n      dup1\n      revert\n    tag_42:\n      pop\n      tag_43\n      tag_44\n      jump\t// in\n    tag_43:\n      0x40\n      dup1\n      mload\n        /* \"#utility.yul\":4155:4180   */\n      swap4\n      dup5\n      mstore\n      sub(shl(0xa0, 0x01), 0x01)\n        /* \"#utility.yul\":4216:4271   */\n      swap1\n      swap3\n      and\n        /* \"#utility.yul\":4211:4213   */\n      0x20\n        /* \"#utility.yul\":4196:4214   */\n      dup5\n      add\n        /* \"#utility.yul\":4189:4272   */\n      mstore\n        /* \"#utility.yul\":4288:4306   */\n      swap1\n      dup3\n      add\n        /* \"#utility.yul\":4281:4315   */\n      mstore\n        /* \"#utility.yul\":4143:4145   */\n      0x60\n        /* \"#utility.yul\":4128:4146   */\n      add\n        /* \"EthGlobal/smart-contract/example6551.sol\":1302:1716  function token()... */\n      tag_17\n        /* \"#utility.yul\":3953:4321   */\n      jump\n        /* \"EthGlobal/smart-contract/example6551.sol\":2001:2208  function supportsInterface(bytes4 interfaceId) public pure returns (bool) {... */\n    tag_16:\n        /* \"EthGlobal/smart-contract/example6551.sol\":2069:2073  bool */\n      0x00\n      not(sub(shl(0xe0, 0x01), 0x01))\n        /* \"EthGlobal/smart-contract/example6551.sol\":2094:2134  interfaceId == type(IERC165).interfaceId */\n      dup3\n      and\n      shl(0xe0, 0x01ffc9a7)\n      eq\n      dup1\n        /* \"EthGlobal/smart-contract/example6551.sol\":2094:2199  interfaceId == type(IERC165).interfaceId ||... */\n      tag_48\n      jumpi\n      pop\n      not(sub(shl(0xe0, 0x01), 0x01))\n        /* \"EthGlobal/smart-contract/example6551.sol\":2151:2199  interfaceId == type(IERC6551Account).interfaceId */\n      dup3\n      and\n      shl(0xe3, 0x08014073)\n      eq\n        /* \"EthGlobal/smart-contract/example6551.sol\":2094:2199  interfaceId == type(IERC165).interfaceId ||... */\n    tag_48:\n        /* \"EthGlobal/smart-contract/example6551.sol\":2086:2200  return (interfaceId == type(IERC165).interfaceId ||... */\n      swap3\n        /* \"EthGlobal/smart-contract/example6551.sol\":2001:2208  function supportsInterface(bytes4 interfaceId) public pure returns (bool) {... */\n      swap2\n      pop\n      pop\n      jump\t// out\n        /* \"EthGlobal/smart-contract/example6551.sol\":2216:2615  function isValidSignature(bytes32 hash, bytes memory signature)... */\n    tag_23:\n        /* \"EthGlobal/smart-contract/example6551.sol\":2330:2347  bytes4 magicValue */\n      0x00\n        /* \"EthGlobal/smart-contract/example6551.sol\":2365:2377  bool isValid */\n      dup1\n        /* \"EthGlobal/smart-contract/example6551.sol\":2380:2492  SignatureChecker.isValidSignatureNow(... */\n      tag_50\n        /* \"EthGlobal/smart-contract/example6551.sol\":2431:2438  owner() */\n      tag_51\n        /* \"EthGlobal/smart-contract/example6551.sol\":2431:2436  owner */\n      tag_28\n        /* \"EthGlobal/smart-contract/example6551.sol\":2431:2438  owner() */\n      jump\t// in\n    tag_51:\n        /* \"EthGlobal/smart-contract/example6551.sol\":2453:2457  hash */\n      dup6\n        /* \"EthGlobal/smart-contract/example6551.sol\":2472:2481  signature */\n      dup6\n        /* \"EthGlobal/smart-contract/example6551.sol\":2380:2416  SignatureChecker.isValidSignatureNow */\n      tag_52\n        /* \"EthGlobal/smart-contract/example6551.sol\":2380:2492  SignatureChecker.isValidSignatureNow(... */\n      jump\t// in\n    tag_50:\n        /* \"EthGlobal/smart-contract/example6551.sol\":2365:2492  bool isValid = SignatureChecker.isValidSignatureNow(... */\n      swap1\n      pop\n        /* \"EthGlobal/smart-contract/example6551.sol\":2509:2516  isValid */\n      dup1\n        /* \"EthGlobal/smart-contract/example6551.sol\":2505:2586  if (isValid) {... */\n      iszero\n      tag_53\n      jumpi\n      pop\n      shl(0xe1, 0x0b135d3f)\n        /* \"EthGlobal/smart-contract/example6551.sol\":2540:2574  IERC1271.isValidSignature.selector */\n      swap1\n      pop\n        /* \"EthGlobal/smart-contract/example6551.sol\":2533:2574  return IERC1271.isValidSignature.selector */\n      jump(tag_48)\n        /* \"EthGlobal/smart-contract/example6551.sol\":2505:2586  if (isValid) {... */\n    tag_53:\n      pop\n        /* \"EthGlobal/smart-contract/example6551.sol\":2598:2607  return \"\" */\n      0x00\n      swap4\n        /* \"EthGlobal/smart-contract/example6551.sol\":2216:2615  function isValidSignature(bytes32 hash, bytes memory signature)... */\n      swap3\n      pop\n      pop\n      pop\n      jump\t// out\n        /* \"EthGlobal/smart-contract/example6551.sol\":1724:1993  function owner() public view returns (address) {... */\n    tag_28:\n        /* \"EthGlobal/smart-contract/example6551.sol\":1762:1769  address */\n      0x00\n        /* \"EthGlobal/smart-contract/example6551.sol\":1783:1798  uint256 chainId */\n      dup1\n        /* \"EthGlobal/smart-contract/example6551.sol\":1800:1821  address tokenContract */\n      0x00\n        /* \"EthGlobal/smart-contract/example6551.sol\":1823:1838  uint256 tokenId */\n      dup1\n        /* \"EthGlobal/smart-contract/example6551.sol\":1842:1846  this */\n      address\n      sub(shl(0xa0, 0x01), 0x01)\n        /* \"EthGlobal/smart-contract/example6551.sol\":1842:1866  this... */\n      and\n      0xfc0c546a\n        /* \"EthGlobal/smart-contract/example6551.sol\":1842:1868  this... */\n      mload(0x40)\n      dup2\n      0xffffffff\n      and\n      0xe0\n      shl\n      dup2\n      mstore\n      0x04\n      add\n      0x60\n      mload(0x40)\n      dup1\n      dup4\n      sub\n      dup2\n      dup7\n      gas\n      staticcall\n      iszero\n      dup1\n      iszero\n      tag_56\n      jumpi\n      returndatasize\n      0x00\n      dup1\n      returndatacopy\n      revert(0x00, returndatasize)\n    tag_56:\n      pop\n      pop\n      pop\n      pop\n      mload(0x40)\n      returndatasize\n      not(0x1f)\n      0x1f\n      dup3\n      add\n      and\n      dup3\n      add\n      dup1\n      0x40\n      mstore\n      pop\n      dup2\n      add\n      swap1\n      tag_57\n      swap2\n      swap1\n      tag_58\n      jump\t// in\n    tag_57:\n        /* \"EthGlobal/smart-contract/example6551.sol\":1782:1868  (uint256 chainId, address tokenContract, uint256 tokenId) = this... */\n      swap3\n      pop\n      swap3\n      pop\n      swap3\n      pop\n        /* \"EthGlobal/smart-contract/example6551.sol\":1894:1907  block.chainid */\n      chainid\n        /* \"EthGlobal/smart-contract/example6551.sol\":1883:1890  chainId */\n      dup4\n        /* \"EthGlobal/smart-contract/example6551.sol\":1883:1907  chainId != block.chainid */\n      eq\n        /* \"EthGlobal/smart-contract/example6551.sol\":1879:1926  if (chainId != block.chainid) return address(0) */\n      tag_59\n      jumpi\n        /* \"EthGlobal/smart-contract/example6551.sol\":1924:1925  0 */\n      0x00\n        /* \"EthGlobal/smart-contract/example6551.sol\":1909:1926  return address(0) */\n      swap4\n      pop\n      pop\n      pop\n      pop\n        /* \"EthGlobal/smart-contract/example6551.sol\":1724:1993  function owner() public view returns (address) {... */\n      swap1\n      jump\t// out\n        /* \"EthGlobal/smart-contract/example6551.sol\":1879:1926  if (chainId != block.chainid) return address(0) */\n    tag_59:\n        /* \"EthGlobal/smart-contract/example6551.sol\":1946:1985  IERC721(tokenContract).ownerOf(tokenId) */\n      mload(0x40)\n      shl(0xe1, 0x31a9108f)\n      dup2\n      mstore\n      0x04\n      dup2\n      add\n        /* \"#utility.yul\":3917:3942   */\n      dup3\n      swap1\n      mstore\n      sub(shl(0xa0, 0x01), 0x01)\n        /* \"EthGlobal/smart-contract/example6551.sol\":1946:1976  IERC721(tokenContract).ownerOf */\n      dup4\n      and\n      swap1\n      0x6352211e\n      swap1\n        /* \"#utility.yul\":3890:3908   */\n      0x24\n      add\n        /* \"EthGlobal/smart-contract/example6551.sol\":1946:1985  IERC721(tokenContract).ownerOf(tokenId) */\n      0x20\n      mload(0x40)\n      dup1\n      dup4\n      sub\n      dup2\n      dup7\n      gas\n      staticcall\n      iszero\n      dup1\n      iszero\n      tag_62\n      jumpi\n      returndatasize\n      0x00\n      dup1\n      returndatacopy\n      revert(0x00, returndatasize)\n    tag_62:\n      pop\n      pop\n      pop\n      pop\n      mload(0x40)\n      returndatasize\n      not(0x1f)\n      0x1f\n      dup3\n      add\n      and\n      dup3\n      add\n      dup1\n      0x40\n      mstore\n      pop\n      dup2\n      add\n      swap1\n      tag_63\n      swap2\n      swap1\n      tag_64\n      jump\t// in\n    tag_63:\n        /* \"EthGlobal/smart-contract/example6551.sol\":1939:1985  return IERC721(tokenContract).ownerOf(tokenId) */\n      swap4\n      pop\n      pop\n      pop\n      pop\n        /* \"EthGlobal/smart-contract/example6551.sol\":1724:1993  function owner() public view returns (address) {... */\n      swap1\n      jump\t// out\n        /* \"EthGlobal/smart-contract/example6551.sol\":860:1294  function executeCall(... */\n    tag_34:\n        /* \"EthGlobal/smart-contract/example6551.sol\":989:1008  bytes memory result */\n      0x60\n        /* \"EthGlobal/smart-contract/example6551.sol\":1043:1050  owner() */\n      tag_66\n        /* \"EthGlobal/smart-contract/example6551.sol\":1043:1048  owner */\n      tag_28\n        /* \"EthGlobal/smart-contract/example6551.sol\":1043:1050  owner() */\n      jump\t// in\n    tag_66:\n      sub(shl(0xa0, 0x01), 0x01)\n        /* \"EthGlobal/smart-contract/example6551.sol\":1029:1050  msg.sender == owner() */\n      and\n        /* \"EthGlobal/smart-contract/example6551.sol\":1029:1039  msg.sender */\n      caller\n      sub(shl(0xa0, 0x01), 0x01)\n        /* \"EthGlobal/smart-contract/example6551.sol\":1029:1050  msg.sender == owner() */\n      and\n      eq\n        /* \"EthGlobal/smart-contract/example6551.sol\":1021:1070  require(msg.sender == owner(), \"Not token owner\") */\n      tag_67\n      jumpi\n      mload(0x40)\n      shl(0xe5, 0x461bcd)\n      dup2\n      mstore\n        /* \"#utility.yul\":5162:5164   */\n      0x20\n        /* \"EthGlobal/smart-contract/example6551.sol\":1021:1070  require(msg.sender == owner(), \"Not token owner\") */\n      0x04\n      dup3\n      add\n        /* \"#utility.yul\":5144:5165   */\n      mstore\n        /* \"#utility.yul\":5201:5203   */\n      0x0f\n        /* \"#utility.yul\":5181:5199   */\n      0x24\n      dup3\n      add\n        /* \"#utility.yul\":5174:5204   */\n      mstore\n      shl(0x89, 0x2737ba103a37b5b2b71037bbb732b9)\n        /* \"#utility.yul\":5220:5238   */\n      0x44\n      dup3\n      add\n        /* \"#utility.yul\":5213:5258   */\n      mstore\n        /* \"#utility.yul\":5275:5293   */\n      0x64\n      add\n        /* \"EthGlobal/smart-contract/example6551.sol\":1021:1070  require(msg.sender == owner(), \"Not token owner\") */\n    tag_68:\n      mload(0x40)\n      dup1\n      swap2\n      sub\n      swap1\n      revert\n    tag_67:\n        /* \"EthGlobal/smart-contract/example6551.sol\":1083:1095  bool success */\n      0x00\n        /* \"EthGlobal/smart-contract/example6551.sol\":1126:1128  to */\n      dup6\n      sub(shl(0xa0, 0x01), 0x01)\n        /* \"EthGlobal/smart-contract/example6551.sol\":1126:1133  to.call */\n      and\n        /* \"EthGlobal/smart-contract/example6551.sol\":1141:1146  value */\n      dup6\n        /* \"EthGlobal/smart-contract/example6551.sol\":1148:1152  data */\n      dup6\n      dup6\n        /* \"EthGlobal/smart-contract/example6551.sol\":1126:1153  to.call{value: value}(data) */\n      mload(0x40)\n      tag_70\n      swap3\n      swap2\n      swap1\n      tag_71\n      jump\t// in\n    tag_70:\n      0x00\n      mload(0x40)\n      dup1\n      dup4\n      sub\n      dup2\n      dup6\n      dup8\n      gas\n      call\n      swap3\n      pop\n      pop\n      pop\n      returndatasize\n      dup1\n      0x00\n      dup2\n      eq\n      tag_74\n      jumpi\n      mload(0x40)\n      swap2\n      pop\n      and(add(returndatasize, 0x3f), not(0x1f))\n      dup3\n      add\n      0x40\n      mstore\n      returndatasize\n      dup3\n      mstore\n      returndatasize\n      0x00\n      0x20\n      dup5\n      add\n      returndatacopy\n      jump(tag_73)\n    tag_74:\n      0x60\n      swap2\n      pop\n    tag_73:\n      pop\n        /* \"EthGlobal/smart-contract/example6551.sol\":1106:1153  (success, result) = to.call{value: value}(data) */\n      swap3\n      pop\n      swap1\n      pop\n      dup1\n        /* \"EthGlobal/smart-contract/example6551.sol\":1166:1287  if (!success) {... */\n      tag_75\n      jumpi\n        /* \"EthGlobal/smart-contract/example6551.sol\":1253:1259  result */\n      dup2\n        /* \"EthGlobal/smart-contract/example6551.sol\":1247:1260  mload(result) */\n      mload\n        /* \"EthGlobal/smart-contract/example6551.sol\":1242:1244  32 */\n      0x20\n        /* \"EthGlobal/smart-contract/example6551.sol\":1234:1240  result */\n      dup4\n        /* \"EthGlobal/smart-contract/example6551.sol\":1230:1245  add(result, 32) */\n      add\n        /* \"EthGlobal/smart-contract/example6551.sol\":1223:1261  revert(add(result, 32), mload(result)) */\n      revert\n        /* \"EthGlobal/smart-contract/example6551.sol\":1166:1287  if (!success) {... */\n    tag_75:\n        /* \"EthGlobal/smart-contract/example6551.sol\":1010:1294  {... */\n      pop\n        /* \"EthGlobal/smart-contract/example6551.sol\":860:1294  function executeCall(... */\n      swap5\n      swap4\n      pop\n      pop\n      pop\n      pop\n      jump\t// out\n        /* \"EthGlobal/smart-contract/example6551.sol\":1302:1716  function token()... */\n    tag_44:\n        /* \"EthGlobal/smart-contract/example6551.sol\":1383:1398  uint256 chainId */\n      0x00\n      dup1\n      dup1\n        /* \"EthGlobal/smart-contract/example6551.sol\":1517:1521  this */\n      address\n        /* \"EthGlobal/smart-contract/example6551.sol\":1509:1534  address(this).code.length */\n      dup1\n      extcodesize\n      swap1\n        /* \"EthGlobal/smart-contract/example6551.sol\":1594:1647  Bytecode.codeAt(address(this), length - 0x60, length) */\n      tag_77\n      swap1\n        /* \"EthGlobal/smart-contract/example6551.sol\":1625:1638  length - 0x60 */\n      tag_78\n        /* \"EthGlobal/smart-contract/example6551.sol\":1634:1638  0x60 */\n      0x60\n        /* \"EthGlobal/smart-contract/example6551.sol\":1509:1534  address(this).code.length */\n      dup5\n        /* \"EthGlobal/smart-contract/example6551.sol\":1625:1638  length - 0x60 */\n      tag_79\n      jump\t// in\n    tag_78:\n        /* \"EthGlobal/smart-contract/example6551.sol\":1640:1646  length */\n      dup4\n        /* \"EthGlobal/smart-contract/example6551.sol\":1594:1609  Bytecode.codeAt */\n      tag_80\n        /* \"EthGlobal/smart-contract/example6551.sol\":1594:1647  Bytecode.codeAt(address(this), length - 0x60, length) */\n      jump\t// in\n    tag_77:\n        /* \"EthGlobal/smart-contract/example6551.sol\":1565:1708  abi.decode(... */\n      dup1\n      0x20\n      add\n      swap1\n      mload\n      dup2\n      add\n      swap1\n      tag_81\n      swap2\n      swap1\n      tag_58\n      jump\t// in\n    tag_81:\n        /* \"EthGlobal/smart-contract/example6551.sol\":1545:1708  return... */\n      swap4\n      pop\n      swap4\n      pop\n      swap4\n      pop\n      pop\n        /* \"EthGlobal/smart-contract/example6551.sol\":1302:1716  function token()... */\n      swap1\n      swap2\n      swap3\n      jump\t// out\n        /* \"https://github.com/OpenZeppelin/openzeppelin-contracts/blob/master/contracts/utils/cryptography/SignatureChecker.sol\":1015:1383  function isValidSignatureNow(address signer, bytes32 hash, bytes memory signature) internal view returns (bool) {... */\n    tag_52:\n        /* \"https://github.com/OpenZeppelin/openzeppelin-contracts/blob/master/contracts/utils/cryptography/SignatureChecker.sol\":1121:1125  bool */\n      0x00\n        /* \"https://github.com/OpenZeppelin/openzeppelin-contracts/blob/master/contracts/utils/cryptography/SignatureChecker.sol\":1138:1155  address recovered */\n      dup1\n        /* \"https://github.com/OpenZeppelin/openzeppelin-contracts/blob/master/contracts/utils/cryptography/SignatureChecker.sol\":1157:1181  ECDSA.RecoverError error */\n      0x00\n        /* \"https://github.com/OpenZeppelin/openzeppelin-contracts/blob/master/contracts/utils/cryptography/SignatureChecker.sol\":1187:1220  ECDSA.tryRecover(hash, signature) */\n      tag_84\n        /* \"https://github.com/OpenZeppelin/openzeppelin-contracts/blob/master/contracts/utils/cryptography/SignatureChecker.sol\":1204:1208  hash */\n      dup6\n        /* \"https://github.com/OpenZeppelin/openzeppelin-contracts/blob/master/contracts/utils/cryptography/SignatureChecker.sol\":1210:1219  signature */\n      dup6\n        /* \"https://github.com/OpenZeppelin/openzeppelin-contracts/blob/master/contracts/utils/cryptography/SignatureChecker.sol\":1187:1203  ECDSA.tryRecover */\n      tag_85\n        /* \"https://github.com/OpenZeppelin/openzeppelin-contracts/blob/master/contracts/utils/cryptography/SignatureChecker.sol\":1187:1220  ECDSA.tryRecover(hash, signature) */\n      jump\t// in\n    tag_84:\n      pop\n        /* \"https://github.com/OpenZeppelin/openzeppelin-contracts/blob/master/contracts/utils/cryptography/SignatureChecker.sol\":1137:1220  (address recovered, ECDSA.RecoverError error, ) = ECDSA.tryRecover(hash, signature) */\n      swap1\n      swap3\n      pop\n      swap1\n      pop\n        /* \"https://github.com/OpenZeppelin/openzeppelin-contracts/blob/master/contracts/utils/cryptography/SignatureChecker.sol\":1259:1285  ECDSA.RecoverError.NoError */\n      0x00\n        /* \"https://github.com/OpenZeppelin/openzeppelin-contracts/blob/master/contracts/utils/cryptography/SignatureChecker.sol\":1250:1255  error */\n      dup2\n        /* \"https://github.com/OpenZeppelin/openzeppelin-contracts/blob/master/contracts/utils/cryptography/SignatureChecker.sol\":1250:1285  error == ECDSA.RecoverError.NoError */\n      0x03\n      dup2\n      gt\n      iszero\n      tag_90\n      jumpi\n      tag_90\n      tag_88\n      jump\t// in\n    tag_90:\n      eq\n        /* \"https://github.com/OpenZeppelin/openzeppelin-contracts/blob/master/contracts/utils/cryptography/SignatureChecker.sol\":1250:1308  error == ECDSA.RecoverError.NoError && recovered == signer */\n      dup1\n      iszero\n      tag_91\n      jumpi\n      pop\n        /* \"https://github.com/OpenZeppelin/openzeppelin-contracts/blob/master/contracts/utils/cryptography/SignatureChecker.sol\":1302:1308  signer */\n      dup6\n      sub(shl(0xa0, 0x01), 0x01)\n        /* \"https://github.com/OpenZeppelin/openzeppelin-contracts/blob/master/contracts/utils/cryptography/SignatureChecker.sol\":1289:1308  recovered == signer */\n      and\n        /* \"https://github.com/OpenZeppelin/openzeppelin-contracts/blob/master/contracts/utils/cryptography/SignatureChecker.sol\":1289:1298  recovered */\n      dup3\n      sub(shl(0xa0, 0x01), 0x01)\n        /* \"https://github.com/OpenZeppelin/openzeppelin-contracts/blob/master/contracts/utils/cryptography/SignatureChecker.sol\":1289:1308  recovered == signer */\n      and\n      eq\n        /* \"https://github.com/OpenZeppelin/openzeppelin-contracts/blob/master/contracts/utils/cryptography/SignatureChecker.sol\":1250:1308  error == ECDSA.RecoverError.NoError && recovered == signer */\n    tag_91:\n        /* \"https://github.com/OpenZeppelin/openzeppelin-contracts/blob/master/contracts/utils/cryptography/SignatureChecker.sol\":1249:1376  (error == ECDSA.RecoverError.NoError && recovered == signer) ||... */\n      dup1\n      tag_93\n      jumpi\n      pop\n        /* \"https://github.com/OpenZeppelin/openzeppelin-contracts/blob/master/contracts/utils/cryptography/SignatureChecker.sol\":1325:1376  isValidERC1271SignatureNow(signer, hash, signature) */\n      tag_93\n        /* \"https://github.com/OpenZeppelin/openzeppelin-contracts/blob/master/contracts/utils/cryptography/SignatureChecker.sol\":1352:1358  signer */\n      dup7\n        /* \"https://github.com/OpenZeppelin/openzeppelin-contracts/blob/master/contracts/utils/cryptography/SignatureChecker.sol\":1360:1364  hash */\n      dup7\n        /* \"https://github.com/OpenZeppelin/openzeppelin-contracts/blob/master/contracts/utils/cryptography/SignatureChecker.sol\":1366:1375  signature */\n      dup7\n        /* \"https://github.com/OpenZeppelin/openzeppelin-contracts/blob/master/contracts/utils/cryptography/SignatureChecker.sol\":1325:1351  isValidERC1271SignatureNow */\n      tag_94\n        /* \"https://github.com/OpenZeppelin/openzeppelin-contracts/blob/master/contracts/utils/cryptography/SignatureChecker.sol\":1325:1376  isValidERC1271SignatureNow(signer, hash, signature) */\n      jump\t// in\n    tag_93:\n        /* \"https://github.com/OpenZeppelin/openzeppelin-contracts/blob/master/contracts/utils/cryptography/SignatureChecker.sol\":1230:1376  return... */\n      swap3\n      pop\n      pop\n      pop\n        /* \"https://github.com/OpenZeppelin/openzeppelin-contracts/blob/master/contracts/utils/cryptography/SignatureChecker.sol\":1015:1383  function isValidSignatureNow(address signer, bytes32 hash, bytes memory signature) internal view returns (bool) {... */\n    tag_83:\n      swap4\n      swap3\n      pop\n      pop\n      pop\n      jump\t// out\n        /* \"https://github.com/0xsequence/sstore2/blob/master/contracts/utils/Bytecode.sol\":1793:2739  function codeAt(address _addr, uint256 _start, uint256 _end) internal view returns (bytes memory oCode) {... */\n    tag_80:\n        /* \"https://github.com/0xsequence/sstore2/blob/master/contracts/utils/Bytecode.sol\":1877:1895  bytes memory oCode */\n      0x60\n        /* \"https://github.com/0xsequence/sstore2/blob/master/contracts/utils/Bytecode.sol\":1356:1374  extcodesize(_addr) */\n      dup4\n      extcodesize\n        /* \"https://github.com/0xsequence/sstore2/blob/master/contracts/utils/Bytecode.sol\":1903:1916  uint256 csize */\n      0x00\n        /* \"https://github.com/0xsequence/sstore2/blob/master/contracts/utils/Bytecode.sol\":1944:1954  csize == 0 */\n      dup2\n      swap1\n      sub\n        /* \"https://github.com/0xsequence/sstore2/blob/master/contracts/utils/Bytecode.sol\":1940:1972  if (csize == 0) return bytes(\"\") */\n      tag_98\n      jumpi\n      pop\n      pop\n        /* \"https://github.com/0xsequence/sstore2/blob/master/contracts/utils/Bytecode.sol\":1963:1972  bytes(\"\") */\n      0x40\n      dup1\n      mload\n      0x20\n      dup2\n      add\n      swap1\n      swap2\n      mstore\n      0x00\n      dup2\n      mstore\n        /* \"https://github.com/0xsequence/sstore2/blob/master/contracts/utils/Bytecode.sol\":1956:1972  return bytes(\"\") */\n      jump(tag_83)\n        /* \"https://github.com/0xsequence/sstore2/blob/master/contracts/utils/Bytecode.sol\":1940:1972  if (csize == 0) return bytes(\"\") */\n    tag_98:\n        /* \"https://github.com/0xsequence/sstore2/blob/master/contracts/utils/Bytecode.sol\":1992:1997  csize */\n      dup1\n        /* \"https://github.com/0xsequence/sstore2/blob/master/contracts/utils/Bytecode.sol\":1983:1989  _start */\n      dup5\n        /* \"https://github.com/0xsequence/sstore2/blob/master/contracts/utils/Bytecode.sol\":1983:1997  _start > csize */\n      gt\n        /* \"https://github.com/0xsequence/sstore2/blob/master/contracts/utils/Bytecode.sol\":1979:2015  if (_start > csize) return bytes(\"\") */\n      iszero\n      tag_99\n      jumpi\n      pop\n      pop\n        /* \"https://github.com/0xsequence/sstore2/blob/master/contracts/utils/Bytecode.sol\":2006:2015  bytes(\"\") */\n      0x40\n      dup1\n      mload\n      0x20\n      dup2\n      add\n      swap1\n      swap2\n      mstore\n      0x00\n      dup2\n      mstore\n        /* \"https://github.com/0xsequence/sstore2/blob/master/contracts/utils/Bytecode.sol\":1999:2015  return bytes(\"\") */\n      jump(tag_83)\n        /* \"https://github.com/0xsequence/sstore2/blob/master/contracts/utils/Bytecode.sol\":1979:2015  if (_start > csize) return bytes(\"\") */\n    tag_99:\n        /* \"https://github.com/0xsequence/sstore2/blob/master/contracts/utils/Bytecode.sol\":2032:2038  _start */\n      dup4\n        /* \"https://github.com/0xsequence/sstore2/blob/master/contracts/utils/Bytecode.sol\":2025:2029  _end */\n      dup4\n        /* \"https://github.com/0xsequence/sstore2/blob/master/contracts/utils/Bytecode.sol\":2025:2038  _end < _start */\n      lt\n        /* \"https://github.com/0xsequence/sstore2/blob/master/contracts/utils/Bytecode.sol\":2021:2086  if (_end < _start) revert InvalidCodeAtRange(csize, _start, _end) */\n      iszero\n      tag_100\n      jumpi\n        /* \"https://github.com/0xsequence/sstore2/blob/master/contracts/utils/Bytecode.sol\":2047:2086  InvalidCodeAtRange(csize, _start, _end) */\n      mload(0x40)\n      shl(0xe1, 0x162544fd)\n      dup2\n      mstore\n      0x04\n      dup2\n      add\n        /* \"#utility.yul\":6530:6555   */\n      dup3\n      swap1\n      mstore\n        /* \"#utility.yul\":6571:6589   */\n      0x24\n      dup2\n      add\n        /* \"#utility.yul\":6564:6598   */\n      dup6\n      swap1\n      mstore\n        /* \"#utility.yul\":6614:6632   */\n      0x44\n      dup2\n      add\n        /* \"#utility.yul\":6607:6641   */\n      dup5\n      swap1\n      mstore\n        /* \"#utility.yul\":6503:6521   */\n      0x64\n      add\n        /* \"https://github.com/0xsequence/sstore2/blob/master/contracts/utils/Bytecode.sol\":2047:2086  InvalidCodeAtRange(csize, _start, _end) */\n      tag_68\n        /* \"#utility.yul\":6328:6647   */\n      jump\n        /* \"https://github.com/0xsequence/sstore2/blob/master/contracts/utils/Bytecode.sol\":2021:2086  if (_end < _start) revert InvalidCodeAtRange(csize, _start, _end) */\n    tag_100:\n        /* \"https://github.com/0xsequence/sstore2/blob/master/contracts/utils/Bytecode.sol\":2130:2143  _end - _start */\n      dup4\n      dup4\n      sub\n        /* \"https://github.com/0xsequence/sstore2/blob/master/contracts/utils/Bytecode.sol\":2169:2183  csize - _start */\n      dup5\n      dup3\n      sub\n        /* \"https://github.com/0xsequence/sstore2/blob/master/contracts/utils/Bytecode.sol\":2112:2127  uint256 reqSize */\n      0x00\n        /* \"https://github.com/0xsequence/sstore2/blob/master/contracts/utils/Bytecode.sol\":2207:2224  maxSize < reqSize */\n      dup3\n      dup3\n      lt\n        /* \"https://github.com/0xsequence/sstore2/blob/master/contracts/utils/Bytecode.sol\":2207:2244  maxSize < reqSize ? maxSize : reqSize */\n      tag_103\n      jumpi\n        /* \"https://github.com/0xsequence/sstore2/blob/master/contracts/utils/Bytecode.sol\":2237:2244  reqSize */\n      dup3\n        /* \"https://github.com/0xsequence/sstore2/blob/master/contracts/utils/Bytecode.sol\":2207:2244  maxSize < reqSize ? maxSize : reqSize */\n      jump(tag_104)\n    tag_103:\n        /* \"https://github.com/0xsequence/sstore2/blob/master/contracts/utils/Bytecode.sol\":2227:2234  maxSize */\n      dup2\n        /* \"https://github.com/0xsequence/sstore2/blob/master/contracts/utils/Bytecode.sol\":2207:2244  maxSize < reqSize ? maxSize : reqSize */\n    tag_104:\n        /* \"https://github.com/0xsequence/sstore2/blob/master/contracts/utils/Bytecode.sol\":2413:2417  0x40 */\n      0x40\n        /* \"https://github.com/0xsequence/sstore2/blob/master/contracts/utils/Bytecode.sol\":2407:2418  mload(0x40) */\n      dup1\n      mload\n        /* \"https://github.com/0xsequence/sstore2/blob/master/contracts/utils/Bytecode.sol\":2501:2527  add(add(size, 0x20), 0x1f) */\n      0x3f\n      dup4\n      add\n      not(0x1f)\n        /* \"https://github.com/0xsequence/sstore2/blob/master/contracts/utils/Bytecode.sol\":2497:2539  and(add(add(size, 0x20), 0x1f), not(0x1f)) */\n      and\n        /* \"https://github.com/0xsequence/sstore2/blob/master/contracts/utils/Bytecode.sol\":2486:2540  add(oCode, and(add(add(size, 0x20), 0x1f), not(0x1f))) */\n      dup2\n      add\n        /* \"https://github.com/0xsequence/sstore2/blob/master/contracts/utils/Bytecode.sol\":2473:2541  mstore(0x40, add(oCode, and(add(add(size, 0x20), 0x1f), not(0x1f)))) */\n      swap1\n      swap2\n      mstore\n        /* \"https://github.com/0xsequence/sstore2/blob/master/contracts/utils/Bytecode.sol\":2584:2603  mstore(oCode, size) */\n      dup2\n      dup2\n      mstore\n        /* \"https://github.com/0xsequence/sstore2/blob/master/contracts/utils/Bytecode.sol\":2407:2418  mload(0x40) */\n      swap6\n      pop\n        /* \"https://github.com/0xsequence/sstore2/blob/master/contracts/utils/Bytecode.sol\":2192:2244  uint256 size = maxSize < reqSize ? maxSize : reqSize */\n      swap1\n      pop\n      dup1\n        /* \"https://github.com/0xsequence/sstore2/blob/master/contracts/utils/Bytecode.sol\":2708:2714  _start */\n      dup8\n        /* \"https://github.com/0xsequence/sstore2/blob/master/contracts/utils/Bytecode.sol\":2515:2519  0x20 */\n      0x20\n        /* \"https://github.com/0xsequence/sstore2/blob/master/contracts/utils/Bytecode.sol\":2690:2706  add(oCode, 0x20) */\n      dup8\n      add\n        /* \"https://github.com/0xsequence/sstore2/blob/master/contracts/utils/Bytecode.sol\":2683:2688  _addr */\n      dup11\n        /* \"https://github.com/0xsequence/sstore2/blob/master/contracts/utils/Bytecode.sol\":2671:2721  extcodecopy(_addr, add(oCode, 0x20), _start, size) */\n      extcodecopy\n        /* \"https://github.com/0xsequence/sstore2/blob/master/contracts/utils/Bytecode.sol\":2262:2729  {... */\n      pop\n      pop\n      pop\n        /* \"https://github.com/0xsequence/sstore2/blob/master/contracts/utils/Bytecode.sol\":1897:2739  {... */\n      pop\n        /* \"https://github.com/0xsequence/sstore2/blob/master/contracts/utils/Bytecode.sol\":1793:2739  function codeAt(address _addr, uint256 _start, uint256 _end) internal view returns (bytes memory oCode) {... */\n      swap4\n      swap3\n      pop\n      pop\n      pop\n      jump\t// out\n        /* \"https://github.com/OpenZeppelin/openzeppelin-contracts/blob/master/contracts/utils/cryptography/ECDSA.sol\":2483:3249  function tryRecover(bytes32 hash, bytes memory signature) internal pure returns (address, RecoverError, bytes32) {... */\n    tag_85:\n        /* \"https://github.com/OpenZeppelin/openzeppelin-contracts/blob/master/contracts/utils/cryptography/ECDSA.sol\":2564:2571  address */\n      0x00\n        /* \"https://github.com/OpenZeppelin/openzeppelin-contracts/blob/master/contracts/utils/cryptography/ECDSA.sol\":2573:2585  RecoverError */\n      dup1\n        /* \"https://github.com/OpenZeppelin/openzeppelin-contracts/blob/master/contracts/utils/cryptography/ECDSA.sol\":2587:2594  bytes32 */\n      0x00\n        /* \"https://github.com/OpenZeppelin/openzeppelin-contracts/blob/master/contracts/utils/cryptography/ECDSA.sol\":2610:2619  signature */\n      dup4\n        /* \"https://github.com/OpenZeppelin/openzeppelin-contracts/blob/master/contracts/utils/cryptography/ECDSA.sol\":2610:2626  signature.length */\n      mload\n        /* \"https://github.com/OpenZeppelin/openzeppelin-contracts/blob/master/contracts/utils/cryptography/ECDSA.sol\":2630:2632  65 */\n      0x41\n        /* \"https://github.com/OpenZeppelin/openzeppelin-contracts/blob/master/contracts/utils/cryptography/ECDSA.sol\":2610:2632  signature.length == 65 */\n      sub\n        /* \"https://github.com/OpenZeppelin/openzeppelin-contracts/blob/master/contracts/utils/cryptography/ECDSA.sol\":2606:3243  if (signature.length == 65) {... */\n      tag_106\n      jumpi\n        /* \"https://github.com/OpenZeppelin/openzeppelin-contracts/blob/master/contracts/utils/cryptography/ECDSA.sol\":2946:2950  0x20 */\n      0x20\n        /* \"https://github.com/OpenZeppelin/openzeppelin-contracts/blob/master/contracts/utils/cryptography/ECDSA.sol\":2931:2951  add(signature, 0x20) */\n      dup5\n      add\n        /* \"https://github.com/OpenZeppelin/openzeppelin-contracts/blob/master/contracts/utils/cryptography/ECDSA.sol\":2925:2952  mload(add(signature, 0x20)) */\n      mload\n        /* \"https://github.com/OpenZeppelin/openzeppelin-contracts/blob/master/contracts/utils/cryptography/ECDSA.sol\":2995:2999  0x40 */\n      0x40\n        /* \"https://github.com/OpenZeppelin/openzeppelin-contracts/blob/master/contracts/utils/cryptography/ECDSA.sol\":2980:3000  add(signature, 0x40) */\n      dup6\n      add\n        /* \"https://github.com/OpenZeppelin/openzeppelin-contracts/blob/master/contracts/utils/cryptography/ECDSA.sol\":2974:3001  mload(add(signature, 0x40)) */\n      mload\n        /* \"https://github.com/OpenZeppelin/openzeppelin-contracts/blob/master/contracts/utils/cryptography/ECDSA.sol\":3052:3056  0x60 */\n      0x60\n        /* \"https://github.com/OpenZeppelin/openzeppelin-contracts/blob/master/contracts/utils/cryptography/ECDSA.sol\":3037:3057  add(signature, 0x60) */\n      dup7\n      add\n        /* \"https://github.com/OpenZeppelin/openzeppelin-contracts/blob/master/contracts/utils/cryptography/ECDSA.sol\":3031:3058  mload(add(signature, 0x60)) */\n      mload\n        /* \"https://github.com/OpenZeppelin/openzeppelin-contracts/blob/master/contracts/utils/cryptography/ECDSA.sol\":2648:2657  bytes32 r */\n      0x00\n        /* \"https://github.com/OpenZeppelin/openzeppelin-contracts/blob/master/contracts/utils/cryptography/ECDSA.sol\":3023:3059  byte(0, mload(add(signature, 0x60))) */\n      byte\n        /* \"https://github.com/OpenZeppelin/openzeppelin-contracts/blob/master/contracts/utils/cryptography/ECDSA.sol\":3093:3118  tryRecover(hash, v, r, s) */\n      tag_107\n        /* \"https://github.com/OpenZeppelin/openzeppelin-contracts/blob/master/contracts/utils/cryptography/ECDSA.sol\":3104:3108  hash */\n      dup9\n        /* \"https://github.com/OpenZeppelin/openzeppelin-contracts/blob/master/contracts/utils/cryptography/ECDSA.sol\":3023:3059  byte(0, mload(add(signature, 0x60))) */\n      dup3\n        /* \"https://github.com/OpenZeppelin/openzeppelin-contracts/blob/master/contracts/utils/cryptography/ECDSA.sol\":2925:2952  mload(add(signature, 0x20)) */\n      dup6\n        /* \"https://github.com/OpenZeppelin/openzeppelin-contracts/blob/master/contracts/utils/cryptography/ECDSA.sol\":2974:3001  mload(add(signature, 0x40)) */\n      dup6\n        /* \"https://github.com/OpenZeppelin/openzeppelin-contracts/blob/master/contracts/utils/cryptography/ECDSA.sol\":3093:3103  tryRecover */\n      tag_108\n        /* \"https://github.com/OpenZeppelin/openzeppelin-contracts/blob/master/contracts/utils/cryptography/ECDSA.sol\":3093:3118  tryRecover(hash, v, r, s) */\n      jump\t// in\n    tag_107:\n        /* \"https://github.com/OpenZeppelin/openzeppelin-contracts/blob/master/contracts/utils/cryptography/ECDSA.sol\":3086:3118  return tryRecover(hash, v, r, s) */\n      swap6\n      pop\n      swap6\n      pop\n      swap6\n      pop\n      pop\n      pop\n      pop\n      jump(tag_109)\n        /* \"https://github.com/OpenZeppelin/openzeppelin-contracts/blob/master/contracts/utils/cryptography/ECDSA.sol\":2606:3243  if (signature.length == 65) {... */\n    tag_106:\n      pop\n      pop\n        /* \"https://github.com/OpenZeppelin/openzeppelin-contracts/blob/master/contracts/utils/cryptography/ECDSA.sol\":3214:3230  signature.length */\n      dup2\n      mload\n        /* \"https://github.com/OpenZeppelin/openzeppelin-contracts/blob/master/contracts/utils/cryptography/ECDSA.sol\":3165:3166  0 */\n      0x00\n      swap2\n      pop\n        /* \"https://github.com/OpenZeppelin/openzeppelin-contracts/blob/master/contracts/utils/cryptography/ECDSA.sol\":3169:3204  RecoverError.InvalidSignatureLength */\n      0x02\n      swap1\n        /* \"https://github.com/OpenZeppelin/openzeppelin-contracts/blob/master/contracts/utils/cryptography/ECDSA.sol\":2606:3243  if (signature.length == 65) {... */\n    tag_109:\n        /* \"https://github.com/OpenZeppelin/openzeppelin-contracts/blob/master/contracts/utils/cryptography/ECDSA.sol\":2483:3249  function tryRecover(bytes32 hash, bytes memory signature) internal pure returns (address, RecoverError, bytes32) {... */\n      swap3\n      pop\n      swap3\n      pop\n      swap3\n      jump\t// out\n        /* \"https://github.com/OpenZeppelin/openzeppelin-contracts/blob/master/contracts/utils/cryptography/SignatureChecker.sol\":1789:2247  function isValidERC1271SignatureNow(... */\n    tag_94:\n        /* \"https://github.com/OpenZeppelin/openzeppelin-contracts/blob/master/contracts/utils/cryptography/SignatureChecker.sol\":1932:1936  bool */\n      0x00\n        /* \"https://github.com/OpenZeppelin/openzeppelin-contracts/blob/master/contracts/utils/cryptography/SignatureChecker.sol\":1949:1961  bool success */\n      dup1\n        /* \"https://github.com/OpenZeppelin/openzeppelin-contracts/blob/master/contracts/utils/cryptography/SignatureChecker.sol\":1963:1982  bytes memory result */\n      0x00\n        /* \"https://github.com/OpenZeppelin/openzeppelin-contracts/blob/master/contracts/utils/cryptography/SignatureChecker.sol\":1986:1992  signer */\n      dup6\n      sub(shl(0xa0, 0x01), 0x01)\n        /* \"https://github.com/OpenZeppelin/openzeppelin-contracts/blob/master/contracts/utils/cryptography/SignatureChecker.sol\":1986:2003  signer.staticcall */\n      and\n        /* \"https://github.com/OpenZeppelin/openzeppelin-contracts/blob/master/contracts/utils/cryptography/SignatureChecker.sol\":2060:2064  hash */\n      dup6\n        /* \"https://github.com/OpenZeppelin/openzeppelin-contracts/blob/master/contracts/utils/cryptography/SignatureChecker.sol\":2066:2075  signature */\n      dup6\n        /* \"https://github.com/OpenZeppelin/openzeppelin-contracts/blob/master/contracts/utils/cryptography/SignatureChecker.sol\":2017:2077  abi.encodeCall(IERC1271.isValidSignature, (hash, signature)) */\n      add(0x24, mload(0x40))\n      tag_111\n      swap3\n      swap2\n      swap1\n      tag_112\n      jump\t// in\n    tag_111:\n      0x40\n      dup1\n      mload\n      not(0x1f)\n      dup2\n      dup5\n      sub\n      add\n      dup2\n      mstore\n      swap2\n      dup2\n      mstore\n      0x20\n      dup3\n      add\n      dup1\n      mload\n      0xffffffffffffffffffffffffffffffffffffffffffffffffffffffff\n      and\n      shl(0xe1, 0x0b135d3f)\n      or\n      swap1\n      mstore\n        /* \"https://github.com/OpenZeppelin/openzeppelin-contracts/blob/master/contracts/utils/cryptography/SignatureChecker.sol\":1986:2087  signer.staticcall(... */\n      mload\n      tag_113\n      swap2\n        /* \"https://github.com/OpenZeppelin/openzeppelin-contracts/blob/master/contracts/utils/cryptography/SignatureChecker.sol\":2017:2077  abi.encodeCall(IERC1271.isValidSignature, (hash, signature)) */\n      swap1\n        /* \"https://github.com/OpenZeppelin/openzeppelin-contracts/blob/master/contracts/utils/cryptography/SignatureChecker.sol\":1986:2087  signer.staticcall(... */\n      tag_114\n      jump\t// in\n    tag_113:\n      0x00\n      mload(0x40)\n      dup1\n      dup4\n      sub\n      dup2\n      dup6\n      gas\n      staticcall\n      swap2\n      pop\n      pop\n      returndatasize\n      dup1\n      0x00\n      dup2\n      eq\n      tag_117\n      jumpi\n      mload(0x40)\n      swap2\n      pop\n      and(add(returndatasize, 0x3f), not(0x1f))\n      dup3\n      add\n      0x40\n      mstore\n      returndatasize\n      dup3\n      mstore\n      returndatasize\n      0x00\n      0x20\n      dup5\n      add\n      returndatacopy\n      jump(tag_116)\n    tag_117:\n      0x60\n      swap2\n      pop\n    tag_116:\n      pop\n        /* \"https://github.com/OpenZeppelin/openzeppelin-contracts/blob/master/contracts/utils/cryptography/SignatureChecker.sol\":1948:2087  (bool success, bytes memory result) = signer.staticcall(... */\n      swap2\n      pop\n      swap2\n      pop\n        /* \"https://github.com/OpenZeppelin/openzeppelin-contracts/blob/master/contracts/utils/cryptography/SignatureChecker.sol\":2105:2112  success */\n      dup2\n        /* \"https://github.com/OpenZeppelin/openzeppelin-contracts/blob/master/contracts/utils/cryptography/SignatureChecker.sol\":2105:2147  success &&... */\n      dup1\n      iszero\n      tag_118\n      jumpi\n      pop\n        /* \"https://github.com/OpenZeppelin/openzeppelin-contracts/blob/master/contracts/utils/cryptography/SignatureChecker.sol\":2145:2147  32 */\n      0x20\n        /* \"https://github.com/OpenZeppelin/openzeppelin-contracts/blob/master/contracts/utils/cryptography/SignatureChecker.sol\":2128:2134  result */\n      dup2\n        /* \"https://github.com/OpenZeppelin/openzeppelin-contracts/blob/master/contracts/utils/cryptography/SignatureChecker.sol\":2128:2141  result.length */\n      mload\n        /* \"https://github.com/OpenZeppelin/openzeppelin-contracts/blob/master/contracts/utils/cryptography/SignatureChecker.sol\":2128:2147  result.length >= 32 */\n      lt\n      iszero\n        /* \"https://github.com/OpenZeppelin/openzeppelin-contracts/blob/master/contracts/utils/cryptography/SignatureChecker.sol\":2105:2147  success &&... */\n    tag_118:\n        /* \"https://github.com/OpenZeppelin/openzeppelin-contracts/blob/master/contracts/utils/cryptography/SignatureChecker.sol\":2105:2239  success &&... */\n      dup1\n      iszero\n      tag_93\n      jumpi\n      pop\n        /* \"https://github.com/OpenZeppelin/openzeppelin-contracts/blob/master/contracts/utils/cryptography/SignatureChecker.sol\":2163:2192  abi.decode(result, (bytes32)) */\n      dup1\n      mload\n      shl(0xe1, 0x0b135d3f)\n        /* \"https://github.com/OpenZeppelin/openzeppelin-contracts/blob/master/contracts/utils/cryptography/SignatureChecker.sol\":2204:2238  IERC1271.isValidSignature.selector */\n      swap1\n        /* \"https://github.com/OpenZeppelin/openzeppelin-contracts/blob/master/contracts/utils/cryptography/SignatureChecker.sol\":2163:2192  abi.decode(result, (bytes32)) */\n      tag_120\n      swap1\n      dup4\n      add\n      0x20\n      swap1\n      dup2\n      add\n      swap1\n      dup5\n      add\n      tag_121\n      jump\t// in\n    tag_120:\n        /* \"https://github.com/OpenZeppelin/openzeppelin-contracts/blob/master/contracts/utils/cryptography/SignatureChecker.sol\":2163:2239  abi.decode(result, (bytes32)) == bytes32(IERC1271.isValidSignature.selector) */\n      eq\n      swap7\n        /* \"https://github.com/OpenZeppelin/openzeppelin-contracts/blob/master/contracts/utils/cryptography/SignatureChecker.sol\":1789:2247  function isValidERC1271SignatureNow(... */\n      swap6\n      pop\n      pop\n      pop\n      pop\n      pop\n      pop\n      jump\t// out\n        /* \"https://github.com/OpenZeppelin/openzeppelin-contracts/blob/master/contracts/utils/cryptography/ECDSA.sol\":5591:7121  function tryRecover(... */\n    tag_108:\n        /* \"https://github.com/OpenZeppelin/openzeppelin-contracts/blob/master/contracts/utils/cryptography/ECDSA.sol\":5717:5724  address */\n      0x00\n      dup1\n      dup1\n        /* \"https://github.com/OpenZeppelin/openzeppelin-contracts/blob/master/contracts/utils/cryptography/ECDSA.sol\":6650:6716  0x7FFFFFFFFFFFFFFFFFFFFFFFFFFFFFFF5D576E7357A4501DDFE92F46681B20A0 */\n      0x7fffffffffffffffffffffffffffffff5d576e7357a4501ddfe92f46681b20a0\n        /* \"https://github.com/OpenZeppelin/openzeppelin-contracts/blob/master/contracts/utils/cryptography/ECDSA.sol\":6637:6716  uint256(s) > 0x7FFFFFFFFFFFFFFFFFFFFFFFFFFFFFFF5D576E7357A4501DDFE92F46681B20A0 */\n      dup5\n      gt\n        /* \"https://github.com/OpenZeppelin/openzeppelin-contracts/blob/master/contracts/utils/cryptography/ECDSA.sol\":6633:6797  if (uint256(s) > 0x7FFFFFFFFFFFFFFFFFFFFFFFFFFFFFFF5D576E7357A4501DDFE92F46681B20A0) {... */\n      iszero\n      tag_124\n      jumpi\n      pop\n        /* \"https://github.com/OpenZeppelin/openzeppelin-contracts/blob/master/contracts/utils/cryptography/ECDSA.sol\":6748:6749  0 */\n      0x00\n      swap2\n      pop\n        /* \"https://github.com/OpenZeppelin/openzeppelin-contracts/blob/master/contracts/utils/cryptography/ECDSA.sol\":6752:6782  RecoverError.InvalidSignatureS */\n      0x03\n      swap1\n      pop\n        /* \"https://github.com/OpenZeppelin/openzeppelin-contracts/blob/master/contracts/utils/cryptography/ECDSA.sol\":6784:6785  s */\n      dup3\n        /* \"https://github.com/OpenZeppelin/openzeppelin-contracts/blob/master/contracts/utils/cryptography/ECDSA.sol\":6732:6786  return (address(0), RecoverError.InvalidSignatureS, s) */\n      jump(tag_123)\n        /* \"https://github.com/OpenZeppelin/openzeppelin-contracts/blob/master/contracts/utils/cryptography/ECDSA.sol\":6633:6797  if (uint256(s) > 0x7FFFFFFFFFFFFFFFFFFFFFFFFFFFFFFF5D576E7357A4501DDFE92F46681B20A0) {... */\n    tag_124:\n        /* \"https://github.com/OpenZeppelin/openzeppelin-contracts/blob/master/contracts/utils/cryptography/ECDSA.sol\":6908:6932  ecrecover(hash, v, r, s) */\n      0x40\n      dup1\n      mload\n        /* \"https://github.com/OpenZeppelin/openzeppelin-contracts/blob/master/contracts/utils/cryptography/ECDSA.sol\":6891:6905  address signer */\n      0x00\n        /* \"https://github.com/OpenZeppelin/openzeppelin-contracts/blob/master/contracts/utils/cryptography/ECDSA.sol\":6908:6932  ecrecover(hash, v, r, s) */\n      dup1\n      dup3\n      mstore\n      0x20\n      dup3\n      add\n      dup1\n      dup5\n      mstore\n        /* \"#utility.yul\":7653:7678   */\n      dup11\n      swap1\n      mstore\n        /* \"#utility.yul\":7726:7730   */\n      0xff\n        /* \"#utility.yul\":7714:7731   */\n      dup10\n      and\n        /* \"#utility.yul\":7694:7712   */\n      swap3\n      dup3\n      add\n        /* \"#utility.yul\":7687:7732   */\n      swap3\n      swap1\n      swap3\n      mstore\n        /* \"#utility.yul\":7748:7766   */\n      0x60\n      dup2\n      add\n        /* \"#utility.yul\":7741:7775   */\n      dup8\n      swap1\n      mstore\n        /* \"#utility.yul\":7791:7809   */\n      0x80\n      dup2\n      add\n        /* \"#utility.yul\":7784:7818   */\n      dup7\n      swap1\n      mstore\n        /* \"https://github.com/OpenZeppelin/openzeppelin-contracts/blob/master/contracts/utils/cryptography/ECDSA.sol\":6908:6932  ecrecover(hash, v, r, s) */\n      0x01\n      swap1\n        /* \"#utility.yul\":7625:7644   */\n      0xa0\n      add\n        /* \"https://github.com/OpenZeppelin/openzeppelin-contracts/blob/master/contracts/utils/cryptography/ECDSA.sol\":6908:6932  ecrecover(hash, v, r, s) */\n      0x20\n      mload(0x40)\n      0x20\n      dup2\n      sub\n      swap1\n      dup1\n      dup5\n      sub\n      swap1\n      dup6\n      gas\n      staticcall\n      iszero\n      dup1\n      iszero\n      tag_128\n      jumpi\n      returndatasize\n      0x00\n      dup1\n      returndatacopy\n      revert(0x00, returndatasize)\n    tag_128:\n      pop\n      pop\n      mload(add(not(0x1f), mload(0x40)))\n      swap2\n      pop\n      pop\n      sub(shl(0xa0, 0x01), 0x01)\n        /* \"https://github.com/OpenZeppelin/openzeppelin-contracts/blob/master/contracts/utils/cryptography/ECDSA.sol\":6946:6966  signer == address(0) */\n      dup2\n      and\n        /* \"https://github.com/OpenZeppelin/openzeppelin-contracts/blob/master/contracts/utils/cryptography/ECDSA.sol\":6942:7055  if (signer == address(0)) {... */\n      tag_129\n      jumpi\n      pop\n        /* \"https://github.com/OpenZeppelin/openzeppelin-contracts/blob/master/contracts/utils/cryptography/ECDSA.sol\":6998:6999  0 */\n      0x00\n      swap3\n      pop\n        /* \"https://github.com/OpenZeppelin/openzeppelin-contracts/blob/master/contracts/utils/cryptography/ECDSA.sol\":7002:7031  RecoverError.InvalidSignature */\n      0x01\n      swap2\n      pop\n        /* \"https://github.com/OpenZeppelin/openzeppelin-contracts/blob/master/contracts/utils/cryptography/ECDSA.sol\":6998:6999  0 */\n      dup3\n      swap1\n      pop\n        /* \"https://github.com/OpenZeppelin/openzeppelin-contracts/blob/master/contracts/utils/cryptography/ECDSA.sol\":6982:7044  return (address(0), RecoverError.InvalidSignature, bytes32(0)) */\n      jump(tag_123)\n        /* \"https://github.com/OpenZeppelin/openzeppelin-contracts/blob/master/contracts/utils/cryptography/ECDSA.sol\":6942:7055  if (signer == address(0)) {... */\n    tag_129:\n        /* \"https://github.com/OpenZeppelin/openzeppelin-contracts/blob/master/contracts/utils/cryptography/ECDSA.sol\":7073:7079  signer */\n      swap3\n      pop\n        /* \"https://github.com/OpenZeppelin/openzeppelin-contracts/blob/master/contracts/utils/cryptography/ECDSA.sol\":7081:7101  RecoverError.NoError */\n      0x00\n      swap2\n      pop\n      dup2\n      swap1\n      pop\n        /* \"https://github.com/OpenZeppelin/openzeppelin-contracts/blob/master/contracts/utils/cryptography/ECDSA.sol\":5591:7121  function tryRecover(... */\n    tag_123:\n      swap5\n      pop\n      swap5\n      pop\n      swap5\n      swap2\n      pop\n      pop\n      jump\t// out\n        /* \"#utility.yul\":14:300   */\n    tag_15:\n        /* \"#utility.yul\":72:78   */\n      0x00\n        /* \"#utility.yul\":125:127   */\n      0x20\n        /* \"#utility.yul\":113:122   */\n      dup3\n        /* \"#utility.yul\":104:111   */\n      dup5\n        /* \"#utility.yul\":100:123   */\n      sub\n        /* \"#utility.yul\":96:128   */\n      slt\n        /* \"#utility.yul\":93:145   */\n      iszero\n      tag_136\n      jumpi\n        /* \"#utility.yul\":141:142   */\n      0x00\n        /* \"#utility.yul\":138:139   */\n      dup1\n        /* \"#utility.yul\":131:143   */\n      revert\n        /* \"#utility.yul\":93:145   */\n    tag_136:\n        /* \"#utility.yul\":167:190   */\n      dup2\n      calldataload\n      not(sub(shl(0xe0, 0x01), 0x01))\n        /* \"#utility.yul\":219:251   */\n      dup2\n      and\n        /* \"#utility.yul\":209:252   */\n      dup2\n      eq\n        /* \"#utility.yul\":199:270   */\n      tag_83\n      jumpi\n        /* \"#utility.yul\":266:267   */\n      0x00\n        /* \"#utility.yul\":263:264   */\n      dup1\n        /* \"#utility.yul\":256:268   */\n      revert\n        /* \"#utility.yul\":497:624   */\n    tag_130:\n        /* \"#utility.yul\":558:568   */\n      0x4e487b71\n        /* \"#utility.yul\":553:556   */\n      0xe0\n        /* \"#utility.yul\":549:569   */\n      shl\n        /* \"#utility.yul\":546:547   */\n      0x00\n        /* \"#utility.yul\":539:570   */\n      mstore\n        /* \"#utility.yul\":589:593   */\n      0x41\n        /* \"#utility.yul\":586:587   */\n      0x04\n        /* \"#utility.yul\":579:594   */\n      mstore\n        /* \"#utility.yul\":613:617   */\n      0x24\n        /* \"#utility.yul\":610:611   */\n      0x00\n        /* \"#utility.yul\":603:618   */\n      revert\n        /* \"#utility.yul\":629:1618   */\n    tag_22:\n        /* \"#utility.yul\":706:712   */\n      0x00\n        /* \"#utility.yul\":714:720   */\n      dup1\n        /* \"#utility.yul\":767:769   */\n      0x40\n        /* \"#utility.yul\":755:764   */\n      dup4\n        /* \"#utility.yul\":746:753   */\n      dup6\n        /* \"#utility.yul\":742:765   */\n      sub\n        /* \"#utility.yul\":738:770   */\n      slt\n        /* \"#utility.yul\":735:787   */\n      iszero\n      tag_141\n      jumpi\n        /* \"#utility.yul\":783:784   */\n      0x00\n        /* \"#utility.yul\":780:781   */\n      dup1\n        /* \"#utility.yul\":773:785   */\n      revert\n        /* \"#utility.yul\":735:787   */\n    tag_141:\n        /* \"#utility.yul\":819:828   */\n      dup3\n        /* \"#utility.yul\":806:829   */\n      calldataload\n        /* \"#utility.yul\":796:829   */\n      swap2\n      pop\n        /* \"#utility.yul\":880:882   */\n      0x20\n        /* \"#utility.yul\":869:878   */\n      dup4\n        /* \"#utility.yul\":865:883   */\n      add\n        /* \"#utility.yul\":852:884   */\n      calldataload\n        /* \"#utility.yul\":903:921   */\n      0xffffffffffffffff\n        /* \"#utility.yul\":944:946   */\n      dup1\n        /* \"#utility.yul\":936:942   */\n      dup3\n        /* \"#utility.yul\":933:947   */\n      gt\n        /* \"#utility.yul\":930:964   */\n      iszero\n      tag_142\n      jumpi\n        /* \"#utility.yul\":960:961   */\n      0x00\n        /* \"#utility.yul\":957:958   */\n      dup1\n        /* \"#utility.yul\":950:962   */\n      revert\n        /* \"#utility.yul\":930:964   */\n    tag_142:\n        /* \"#utility.yul\":998:1004   */\n      dup2\n        /* \"#utility.yul\":987:996   */\n      dup6\n        /* \"#utility.yul\":983:1005   */\n      add\n        /* \"#utility.yul\":973:1005   */\n      swap2\n      pop\n        /* \"#utility.yul\":1043:1050   */\n      dup6\n        /* \"#utility.yul\":1036:1040   */\n      0x1f\n        /* \"#utility.yul\":1032:1034   */\n      dup4\n        /* \"#utility.yul\":1028:1041   */\n      add\n        /* \"#utility.yul\":1024:1051   */\n      slt\n        /* \"#utility.yul\":1014:1069   */\n      tag_143\n      jumpi\n        /* \"#utility.yul\":1065:1066   */\n      0x00\n        /* \"#utility.yul\":1062:1063   */\n      dup1\n        /* \"#utility.yul\":1055:1067   */\n      revert\n        /* \"#utility.yul\":1014:1069   */\n    tag_143:\n        /* \"#utility.yul\":1101:1103   */\n      dup2\n        /* \"#utility.yul\":1088:1104   */\n      calldataload\n        /* \"#utility.yul\":1123:1125   */\n      dup2\n        /* \"#utility.yul\":1119:1121   */\n      dup2\n        /* \"#utility.yul\":1116:1126   */\n      gt\n        /* \"#utility.yul\":1113:1149   */\n      iszero\n      tag_145\n      jumpi\n        /* \"#utility.yul\":1129:1147   */\n      tag_145\n      tag_130\n      jump\t// in\n    tag_145:\n        /* \"#utility.yul\":1204:1206   */\n      0x40\n        /* \"#utility.yul\":1198:1207   */\n      mload\n        /* \"#utility.yul\":1172:1174   */\n      0x1f\n        /* \"#utility.yul\":1258:1271   */\n      dup3\n      add\n      not(0x1f)\n        /* \"#utility.yul\":1254:1276   */\n      swap1\n      dup2\n      and\n        /* \"#utility.yul\":1278:1280   */\n      0x3f\n        /* \"#utility.yul\":1250:1281   */\n      add\n        /* \"#utility.yul\":1246:1286   */\n      and\n        /* \"#utility.yul\":1234:1287   */\n      dup2\n      add\n      swap1\n        /* \"#utility.yul\":1302:1320   */\n      dup4\n      dup3\n      gt\n        /* \"#utility.yul\":1322:1344   */\n      dup2\n      dup4\n      lt\n        /* \"#utility.yul\":1299:1345   */\n      or\n        /* \"#utility.yul\":1296:1368   */\n      iszero\n      tag_147\n      jumpi\n        /* \"#utility.yul\":1348:1366   */\n      tag_147\n      tag_130\n      jump\t// in\n    tag_147:\n        /* \"#utility.yul\":1388:1398   */\n      dup2\n        /* \"#utility.yul\":1384:1386   */\n      0x40\n        /* \"#utility.yul\":1377:1399   */\n      mstore\n        /* \"#utility.yul\":1423:1425   */\n      dup3\n        /* \"#utility.yul\":1415:1421   */\n      dup2\n        /* \"#utility.yul\":1408:1426   */\n      mstore\n        /* \"#utility.yul\":1463:1470   */\n      dup9\n        /* \"#utility.yul\":1458:1460   */\n      0x20\n        /* \"#utility.yul\":1453:1455   */\n      dup5\n        /* \"#utility.yul\":1449:1451   */\n      dup8\n        /* \"#utility.yul\":1445:1456   */\n      add\n        /* \"#utility.yul\":1441:1461   */\n      add\n        /* \"#utility.yul\":1438:1471   */\n      gt\n        /* \"#utility.yul\":1435:1488   */\n      iszero\n      tag_148\n      jumpi\n        /* \"#utility.yul\":1484:1485   */\n      0x00\n        /* \"#utility.yul\":1481:1482   */\n      dup1\n        /* \"#utility.yul\":1474:1486   */\n      revert\n        /* \"#utility.yul\":1435:1488   */\n    tag_148:\n        /* \"#utility.yul\":1540:1542   */\n      dup3\n        /* \"#utility.yul\":1535:1537   */\n      0x20\n        /* \"#utility.yul\":1531:1533   */\n      dup7\n        /* \"#utility.yul\":1527:1538   */\n      add\n        /* \"#utility.yul\":1522:1524   */\n      0x20\n        /* \"#utility.yul\":1514:1520   */\n      dup4\n        /* \"#utility.yul\":1510:1525   */\n      add\n        /* \"#utility.yul\":1497:1543   */\n      calldatacopy\n        /* \"#utility.yul\":1585:1586   */\n      0x00\n        /* \"#utility.yul\":1580:1582   */\n      0x20\n        /* \"#utility.yul\":1575:1577   */\n      dup5\n        /* \"#utility.yul\":1567:1573   */\n      dup4\n        /* \"#utility.yul\":1563:1578   */\n      add\n        /* \"#utility.yul\":1559:1583   */\n      add\n        /* \"#utility.yul\":1552:1587   */\n      mstore\n        /* \"#utility.yul\":1606:1612   */\n      dup1\n        /* \"#utility.yul\":1596:1612   */\n      swap6\n      pop\n      pop\n      pop\n      pop\n      pop\n      pop\n        /* \"#utility.yul\":629:1618   */\n      swap3\n      pop\n      swap3\n      swap1\n      pop\n      jump\t// out\n        /* \"#utility.yul\":2061:2215   */\n    tag_131:\n      sub(shl(0xa0, 0x01), 0x01)\n        /* \"#utility.yul\":2140:2145   */\n      dup2\n        /* \"#utility.yul\":2136:2190   */\n      and\n        /* \"#utility.yul\":2129:2134   */\n      dup2\n        /* \"#utility.yul\":2126:2191   */\n      eq\n        /* \"#utility.yul\":2116:2209   */\n      tag_152\n      jumpi\n        /* \"#utility.yul\":2205:2206   */\n      0x00\n        /* \"#utility.yul\":2202:2203   */\n      dup1\n        /* \"#utility.yul\":2195:2207   */\n      revert\n        /* \"#utility.yul\":2116:2209   */\n    tag_152:\n        /* \"#utility.yul\":2061:2215   */\n      pop\n      jump\t// out\n        /* \"#utility.yul\":2220:3014   */\n    tag_33:\n        /* \"#utility.yul\":2308:2314   */\n      0x00\n        /* \"#utility.yul\":2316:2322   */\n      dup1\n        /* \"#utility.yul\":2324:2330   */\n      0x00\n        /* \"#utility.yul\":2332:2338   */\n      dup1\n        /* \"#utility.yul\":2385:2387   */\n      0x60\n        /* \"#utility.yul\":2373:2382   */\n      dup6\n        /* \"#utility.yul\":2364:2371   */\n      dup8\n        /* \"#utility.yul\":2360:2383   */\n      sub\n        /* \"#utility.yul\":2356:2388   */\n      slt\n        /* \"#utility.yul\":2353:2405   */\n      iszero\n      tag_154\n      jumpi\n        /* \"#utility.yul\":2401:2402   */\n      0x00\n        /* \"#utility.yul\":2398:2399   */\n      dup1\n        /* \"#utility.yul\":2391:2403   */\n      revert\n        /* \"#utility.yul\":2353:2405   */\n    tag_154:\n        /* \"#utility.yul\":2440:2449   */\n      dup5\n        /* \"#utility.yul\":2427:2450   */\n      calldataload\n        /* \"#utility.yul\":2459:2490   */\n      tag_155\n        /* \"#utility.yul\":2484:2489   */\n      dup2\n        /* \"#utility.yul\":2459:2490   */\n      tag_131\n      jump\t// in\n    tag_155:\n        /* \"#utility.yul\":2509:2514   */\n      swap4\n      pop\n        /* \"#utility.yul\":2561:2563   */\n      0x20\n        /* \"#utility.yul\":2546:2564   */\n      dup6\n      add\n        /* \"#utility.yul\":2533:2565   */\n      calldataload\n      swap3\n      pop\n        /* \"#utility.yul\":2616:2618   */\n      0x40\n        /* \"#utility.yul\":2601:2619   */\n      dup6\n      add\n        /* \"#utility.yul\":2588:2620   */\n      calldataload\n        /* \"#utility.yul\":2639:2657   */\n      0xffffffffffffffff\n        /* \"#utility.yul\":2669:2683   */\n      dup1\n      dup3\n      gt\n        /* \"#utility.yul\":2666:2700   */\n      iszero\n      tag_156\n      jumpi\n        /* \"#utility.yul\":2696:2697   */\n      0x00\n        /* \"#utility.yul\":2693:2694   */\n      dup1\n        /* \"#utility.yul\":2686:2698   */\n      revert\n        /* \"#utility.yul\":2666:2700   */\n    tag_156:\n        /* \"#utility.yul\":2734:2740   */\n      dup2\n        /* \"#utility.yul\":2723:2732   */\n      dup8\n        /* \"#utility.yul\":2719:2741   */\n      add\n        /* \"#utility.yul\":2709:2741   */\n      swap2\n      pop\n        /* \"#utility.yul\":2779:2786   */\n      dup8\n        /* \"#utility.yul\":2772:2776   */\n      0x1f\n        /* \"#utility.yul\":2768:2770   */\n      dup4\n        /* \"#utility.yul\":2764:2777   */\n      add\n        /* \"#utility.yul\":2760:2787   */\n      slt\n        /* \"#utility.yul\":2750:2805   */\n      tag_157\n      jumpi\n        /* \"#utility.yul\":2801:2802   */\n      0x00\n        /* \"#utility.yul\":2798:2799   */\n      dup1\n        /* \"#utility.yul\":2791:2803   */\n      revert\n        /* \"#utility.yul\":2750:2805   */\n    tag_157:\n        /* \"#utility.yul\":2841:2843   */\n      dup2\n        /* \"#utility.yul\":2828:2844   */\n      calldataload\n        /* \"#utility.yul\":2867:2869   */\n      dup2\n        /* \"#utility.yul\":2859:2865   */\n      dup2\n        /* \"#utility.yul\":2856:2870   */\n      gt\n        /* \"#utility.yul\":2853:2887   */\n      iszero\n      tag_158\n      jumpi\n        /* \"#utility.yul\":2883:2884   */\n      0x00\n        /* \"#utility.yul\":2880:2881   */\n      dup1\n        /* \"#utility.yul\":2873:2885   */\n      revert\n        /* \"#utility.yul\":2853:2887   */\n    tag_158:\n        /* \"#utility.yul\":2928:2935   */\n      dup9\n        /* \"#utility.yul\":2923:2925   */\n      0x20\n        /* \"#utility.yul\":2914:2920   */\n      dup3\n        /* \"#utility.yul\":2910:2912   */\n      dup6\n        /* \"#utility.yul\":2906:2921   */\n      add\n        /* \"#utility.yul\":2902:2926   */\n      add\n        /* \"#utility.yul\":2899:2936   */\n      gt\n        /* \"#utility.yul\":2896:2953   */\n      iszero\n      tag_159\n      jumpi\n        /* \"#utility.yul\":2949:2950   */\n      0x00\n        /* \"#utility.yul\":2946:2947   */\n      dup1\n        /* \"#utility.yul\":2939:2951   */\n      revert\n        /* \"#utility.yul\":2896:2953   */\n    tag_159:\n        /* \"#utility.yul\":2220:3014   */\n      swap6\n      swap9\n      swap5\n      swap8\n      pop\n      pop\n        /* \"#utility.yul\":2980:2982   */\n      0x20\n        /* \"#utility.yul\":2972:2983   */\n      add\n      swap5\n      pop\n      pop\n      pop\n        /* \"#utility.yul\":2220:3014   */\n      jump\t// out\n        /* \"#utility.yul\":3019:3269   */\n    tag_132:\n        /* \"#utility.yul\":3104:3105   */\n      0x00\n        /* \"#utility.yul\":3114:3227   */\n    tag_161:\n        /* \"#utility.yul\":3128:3134   */\n      dup4\n        /* \"#utility.yul\":3125:3126   */\n      dup2\n        /* \"#utility.yul\":3122:3135   */\n      lt\n        /* \"#utility.yul\":3114:3227   */\n      iszero\n      tag_163\n      jumpi\n        /* \"#utility.yul\":3204:3215   */\n      dup2\n      dup2\n      add\n        /* \"#utility.yul\":3198:3216   */\n      mload\n        /* \"#utility.yul\":3185:3196   */\n      dup4\n      dup3\n      add\n        /* \"#utility.yul\":3178:3217   */\n      mstore\n        /* \"#utility.yul\":3150:3152   */\n      0x20\n        /* \"#utility.yul\":3143:3153   */\n      add\n        /* \"#utility.yul\":3114:3227   */\n      jump(tag_161)\n    tag_163:\n      pop\n      pop\n        /* \"#utility.yul\":3261:3262   */\n      0x00\n        /* \"#utility.yul\":3243:3259   */\n      swap2\n      add\n        /* \"#utility.yul\":3236:3263   */\n      mstore\n        /* \"#utility.yul\":3019:3269   */\n      jump\t// out\n        /* \"#utility.yul\":3274:3544   */\n    tag_133:\n        /* \"#utility.yul\":3315:3318   */\n      0x00\n        /* \"#utility.yul\":3353:3358   */\n      dup2\n        /* \"#utility.yul\":3347:3359   */\n      mload\n        /* \"#utility.yul\":3380:3386   */\n      dup1\n        /* \"#utility.yul\":3375:3378   */\n      dup5\n        /* \"#utility.yul\":3368:3387   */\n      mstore\n        /* \"#utility.yul\":3396:3472   */\n      tag_165\n        /* \"#utility.yul\":3465:3471   */\n      dup2\n        /* \"#utility.yul\":3458:3462   */\n      0x20\n        /* \"#utility.yul\":3453:3456   */\n      dup7\n        /* \"#utility.yul\":3449:3463   */\n      add\n        /* \"#utility.yul\":3442:3446   */\n      0x20\n        /* \"#utility.yul\":3435:3440   */\n      dup7\n        /* \"#utility.yul\":3431:3447   */\n      add\n        /* \"#utility.yul\":3396:3472   */\n      tag_132\n      jump\t// in\n    tag_165:\n        /* \"#utility.yul\":3526:3528   */\n      0x1f\n        /* \"#utility.yul\":3505:3520   */\n      add\n      not(0x1f)\n        /* \"#utility.yul\":3501:3530   */\n      and\n        /* \"#utility.yul\":3492:3531   */\n      swap3\n      swap1\n      swap3\n      add\n        /* \"#utility.yul\":3533:3537   */\n      0x20\n        /* \"#utility.yul\":3488:3538   */\n      add\n      swap3\n        /* \"#utility.yul\":3274:3544   */\n      swap2\n      pop\n      pop\n      jump\t// out\n        /* \"#utility.yul\":3549:3766   */\n    tag_36:\n        /* \"#utility.yul\":3696:3698   */\n      0x20\n        /* \"#utility.yul\":3685:3694   */\n      dup2\n        /* \"#utility.yul\":3678:3699   */\n      mstore\n        /* \"#utility.yul\":3659:3663   */\n      0x00\n        /* \"#utility.yul\":3716:3760   */\n      tag_83\n        /* \"#utility.yul\":3756:3758   */\n      0x20\n        /* \"#utility.yul\":3745:3754   */\n      dup4\n        /* \"#utility.yul\":3741:3759   */\n      add\n        /* \"#utility.yul\":3733:3739   */\n      dup5\n        /* \"#utility.yul\":3716:3760   */\n      tag_133\n      jump\t// in\n        /* \"#utility.yul\":4326:4699   */\n    tag_58:\n        /* \"#utility.yul\":4414:4420   */\n      0x00\n        /* \"#utility.yul\":4422:4428   */\n      dup1\n        /* \"#utility.yul\":4430:4436   */\n      0x00\n        /* \"#utility.yul\":4483:4485   */\n      0x60\n        /* \"#utility.yul\":4471:4480   */\n      dup5\n        /* \"#utility.yul\":4462:4469   */\n      dup7\n        /* \"#utility.yul\":4458:4481   */\n      sub\n        /* \"#utility.yul\":4454:4486   */\n      slt\n        /* \"#utility.yul\":4451:4503   */\n      iszero\n      tag_171\n      jumpi\n        /* \"#utility.yul\":4499:4500   */\n      0x00\n        /* \"#utility.yul\":4496:4497   */\n      dup1\n        /* \"#utility.yul\":4489:4501   */\n      revert\n        /* \"#utility.yul\":4451:4503   */\n    tag_171:\n        /* \"#utility.yul\":4528:4537   */\n      dup4\n        /* \"#utility.yul\":4522:4538   */\n      mload\n        /* \"#utility.yul\":4512:4538   */\n      swap3\n      pop\n        /* \"#utility.yul\":4581:4583   */\n      0x20\n        /* \"#utility.yul\":4570:4579   */\n      dup5\n        /* \"#utility.yul\":4566:4584   */\n      add\n        /* \"#utility.yul\":4560:4585   */\n      mload\n        /* \"#utility.yul\":4594:4625   */\n      tag_172\n        /* \"#utility.yul\":4619:4624   */\n      dup2\n        /* \"#utility.yul\":4594:4625   */\n      tag_131\n      jump\t// in\n    tag_172:\n        /* \"#utility.yul\":4644:4649   */\n      dup1\n        /* \"#utility.yul\":4634:4649   */\n      swap3\n      pop\n      pop\n        /* \"#utility.yul\":4689:4691   */\n      0x40\n        /* \"#utility.yul\":4678:4687   */\n      dup5\n        /* \"#utility.yul\":4674:4692   */\n      add\n        /* \"#utility.yul\":4668:4693   */\n      mload\n        /* \"#utility.yul\":4658:4693   */\n      swap1\n      pop\n        /* \"#utility.yul\":4326:4699   */\n      swap3\n      pop\n      swap3\n      pop\n      swap3\n      jump\t// out\n        /* \"#utility.yul\":4704:4955   */\n    tag_64:\n        /* \"#utility.yul\":4774:4780   */\n      0x00\n        /* \"#utility.yul\":4827:4829   */\n      0x20\n        /* \"#utility.yul\":4815:4824   */\n      dup3\n        /* \"#utility.yul\":4806:4813   */\n      dup5\n        /* \"#utility.yul\":4802:4825   */\n      sub\n        /* \"#utility.yul\":4798:4830   */\n      slt\n        /* \"#utility.yul\":4795:4847   */\n      iszero\n      tag_174\n      jumpi\n        /* \"#utility.yul\":4843:4844   */\n      0x00\n        /* \"#utility.yul\":4840:4841   */\n      dup1\n        /* \"#utility.yul\":4833:4845   */\n      revert\n        /* \"#utility.yul\":4795:4847   */\n    tag_174:\n        /* \"#utility.yul\":4875:4884   */\n      dup2\n        /* \"#utility.yul\":4869:4885   */\n      mload\n        /* \"#utility.yul\":4894:4925   */\n      tag_83\n        /* \"#utility.yul\":4919:4924   */\n      dup2\n        /* \"#utility.yul\":4894:4925   */\n      tag_131\n      jump\t// in\n        /* \"#utility.yul\":5304:5575   */\n    tag_71:\n        /* \"#utility.yul\":5487:5493   */\n      dup2\n        /* \"#utility.yul\":5479:5485   */\n      dup4\n        /* \"#utility.yul\":5474:5477   */\n      dup3\n        /* \"#utility.yul\":5461:5494   */\n      calldatacopy\n        /* \"#utility.yul\":5443:5446   */\n      0x00\n        /* \"#utility.yul\":5513:5529   */\n      swap2\n      add\n        /* \"#utility.yul\":5538:5551   */\n      swap1\n      dup2\n      mstore\n        /* \"#utility.yul\":5513:5529   */\n      swap2\n        /* \"#utility.yul\":5304:5575   */\n      swap1\n      pop\n      jump\t// out\n        /* \"#utility.yul\":5580:5805   */\n    tag_79:\n        /* \"#utility.yul\":5647:5656   */\n      dup2\n      dup2\n      sub\n        /* \"#utility.yul\":5668:5679   */\n      dup2\n      dup2\n      gt\n        /* \"#utility.yul\":5665:5799   */\n      iszero\n      tag_48\n      jumpi\n        /* \"#utility.yul\":5721:5731   */\n      0x4e487b71\n        /* \"#utility.yul\":5716:5719   */\n      0xe0\n        /* \"#utility.yul\":5712:5732   */\n      shl\n        /* \"#utility.yul\":5709:5710   */\n      0x00\n        /* \"#utility.yul\":5702:5733   */\n      mstore\n        /* \"#utility.yul\":5756:5760   */\n      0x11\n        /* \"#utility.yul\":5753:5754   */\n      0x04\n        /* \"#utility.yul\":5746:5761   */\n      mstore\n        /* \"#utility.yul\":5784:5788   */\n      0x24\n        /* \"#utility.yul\":5781:5782   */\n      0x00\n        /* \"#utility.yul\":5774:5789   */\n      revert\n        /* \"#utility.yul\":6196:6323   */\n    tag_88:\n        /* \"#utility.yul\":6257:6267   */\n      0x4e487b71\n        /* \"#utility.yul\":6252:6255   */\n      0xe0\n        /* \"#utility.yul\":6248:6268   */\n      shl\n        /* \"#utility.yul\":6245:6246   */\n      0x00\n        /* \"#utility.yul\":6238:6269   */\n      mstore\n        /* \"#utility.yul\":6288:6292   */\n      0x21\n        /* \"#utility.yul\":6285:6286   */\n      0x04\n        /* \"#utility.yul\":6278:6293   */\n      mstore\n        /* \"#utility.yul\":6312:6316   */\n      0x24\n        /* \"#utility.yul\":6309:6310   */\n      0x00\n        /* \"#utility.yul\":6302:6317   */\n      revert\n        /* \"#utility.yul\":6652:6940   */\n    tag_112:\n        /* \"#utility.yul\":6827:6833   */\n      dup3\n        /* \"#utility.yul\":6816:6825   */\n      dup2\n        /* \"#utility.yul\":6809:6834   */\n      mstore\n        /* \"#utility.yul\":6870:6872   */\n      0x40\n        /* \"#utility.yul\":6865:6867   */\n      0x20\n        /* \"#utility.yul\":6854:6863   */\n      dup3\n        /* \"#utility.yul\":6850:6868   */\n      add\n        /* \"#utility.yul\":6843:6873   */\n      mstore\n        /* \"#utility.yul\":6790:6794   */\n      0x00\n        /* \"#utility.yul\":6890:6934   */\n      tag_186\n        /* \"#utility.yul\":6930:6932   */\n      0x40\n        /* \"#utility.yul\":6919:6928   */\n      dup4\n        /* \"#utility.yul\":6915:6933   */\n      add\n        /* \"#utility.yul\":6907:6913   */\n      dup5\n        /* \"#utility.yul\":6890:6934   */\n      tag_133\n      jump\t// in\n    tag_186:\n        /* \"#utility.yul\":6882:6934   */\n      swap5\n        /* \"#utility.yul\":6652:6940   */\n      swap4\n      pop\n      pop\n      pop\n      pop\n      jump\t// out\n        /* \"#utility.yul\":6945:7232   */\n    tag_114:\n        /* \"#utility.yul\":7074:7077   */\n      0x00\n        /* \"#utility.yul\":7112:7118   */\n      dup3\n        /* \"#utility.yul\":7106:7119   */\n      mload\n        /* \"#utility.yul\":7128:7194   */\n      tag_188\n        /* \"#utility.yul\":7187:7193   */\n      dup2\n        /* \"#utility.yul\":7182:7185   */\n      dup5\n        /* \"#utility.yul\":7175:7179   */\n      0x20\n        /* \"#utility.yul\":7167:7173   */\n      dup8\n        /* \"#utility.yul\":7163:7180   */\n      add\n        /* \"#utility.yul\":7128:7194   */\n      tag_132\n      jump\t// in\n    tag_188:\n        /* \"#utility.yul\":7210:7226   */\n      swap2\n      swap1\n      swap2\n      add\n      swap3\n        /* \"#utility.yul\":6945:7232   */\n      swap2\n      pop\n      pop\n      jump\t// out\n        /* \"#utility.yul\":7237:7421   */\n    tag_121:\n        /* \"#utility.yul\":7307:7313   */\n      0x00\n        /* \"#utility.yul\":7360:7362   */\n      0x20\n        /* \"#utility.yul\":7348:7357   */\n      dup3\n        /* \"#utility.yul\":7339:7346   */\n      dup5\n        /* \"#utility.yul\":7335:7358   */\n      sub\n        /* \"#utility.yul\":7331:7363   */\n      slt\n        /* \"#utility.yul\":7328:7380   */\n      iszero\n      tag_190\n      jumpi\n        /* \"#utility.yul\":7376:7377   */\n      0x00\n        /* \"#utility.yul\":7373:7374   */\n      dup1\n        /* \"#utility.yul\":7366:7378   */\n      revert\n        /* \"#utility.yul\":7328:7380   */\n    tag_190:\n      pop\n        /* \"#utility.yul\":7399:7415   */\n      mload\n      swap2\n        /* \"#utility.yul\":7237:7421   */\n      swap1\n      pop\n      jump\t// out\n\n    auxdata: 0xa26469706673582212201b42b45ad9f24b509a66119a7bbe5cd2f4c0aafb7b467cd53f3bf18bba5aa2f664736f6c63430008140033\n}\n",
				"bytecode": {
					"linkReferences": {},
					"object": "608060405234801561000f575f80fd5b506109f98061001d5f395ff3fe608060405260043610610066575f3560e01c80639e5d4c49116100415780639e5d4c4914610109578063affed0e014610129578063fc0c546a1461014b575f80fd5b806301ffc9a7146100715780631626ba7e146100a55780638da5cb5b146100dd575f80fd5b3661006d57005b5f80fd5b34801561007c575f80fd5b5061009061008b3660046106f6565b610182565b60405190151581526020015b60405180910390f35b3480156100b0575f80fd5b506100c46100bf366004610731565b6101b8565b6040516001600160e01b0319909116815260200161009c565b3480156100e8575f80fd5b506100f16101ed565b6040516001600160a01b03909116815260200161009c565b61011c6101173660046107fd565b6102d6565b60405161009c91906108cc565b348015610134575f80fd5b5061013d5f5481565b60405190815260200161009c565b348015610156575f80fd5b5061015f6103ad565b604080519384526001600160a01b0390921660208401529082015260600161009c565b5f6001600160e01b031982166301ffc9a760e01b14806101b257506001600160e01b03198216630801407360e31b145b92915050565b5f806101cc6101c56101ed565b85856103e8565b905080156101e45750630b135d3f60e11b90506101b2565b505f9392505050565b5f805f80306001600160a01b031663fc0c546a6040518163ffffffff1660e01b8152600401606060405180830381865afa15801561022d573d5f803e3d5ffd5b505050506040513d601f19601f8201168201806040525081019061025191906108de565b925092509250468314610267575f935050505090565b6040516331a9108f60e11b8152600481018290526001600160a01b03831690636352211e90602401602060405180830381865afa1580156102aa573d5f803e3d5ffd5b505050506040513d601f19601f820116820180604052508101906102ce9190610914565b935050505090565b60606102e06101ed565b6001600160a01b0316336001600160a01b0316146103375760405162461bcd60e51b815260206004820152600f60248201526e2737ba103a37b5b2b71037bbb732b960891b60448201526064015b60405180910390fd5b5f856001600160a01b031685858560405161035392919061092f565b5f6040518083038185875af1925050503d805f811461038d576040519150601f19603f3d011682016040523d82523d5f602084013e610392565b606091505b5092509050806103a457815160208301fd5b50949350505050565b5f808030803b906103c9906103c360608461093e565b83610449565b8060200190518101906103dc91906108de565b93509350935050909192565b5f805f6103f585856104fa565b5090925090505f81600381111561040e5761040e61095d565b14801561042c5750856001600160a01b0316826001600160a01b0316145b8061043d575061043d868686610543565b925050505b9392505050565b6060833b5f81900361046a57505060408051602081019091525f8152610442565b8084111561048757505060408051602081019091525f8152610442565b838310156104b95760405163162544fd60e11b815260048101829052602481018590526044810184905260640161032e565b8383038482035f8282106104cd57826104cf565b815b60408051603f8301601f19168101909152818152955090508087602087018a3c505050509392505050565b5f805f8351604103610531576020840151604085015160608601515f1a6105238882858561062e565b95509550955050505061053c565b505081515f91506002905b9250925092565b5f805f856001600160a01b03168585604051602401610563929190610971565b60408051601f198184030181529181526020820180517bffffffffffffffffffffffffffffffffffffffffffffffffffffffff16630b135d3f60e11b179052516105ad9190610991565b5f60405180830381855afa9150503d805f81146105e5576040519150601f19603f3d011682016040523d82523d5f602084013e6105ea565b606091505b50915091508180156105fe57506020815110155b801561043d57508051630b135d3f60e11b9061062390830160209081019084016109ac565b149695505050505050565b5f80807f7fffffffffffffffffffffffffffffff5d576e7357a4501ddfe92f46681b20a084111561066757505f915060039050826106ec565b604080515f808252602082018084528a905260ff891692820192909252606081018790526080810186905260019060a0016020604051602081039080840390855afa1580156106b8573d5f803e3d5ffd5b5050604051601f1901519150506001600160a01b0381166106e357505f9250600191508290506106ec565b92505f91508190505b9450945094915050565b5f60208284031215610706575f80fd5b81356001600160e01b031981168114610442575f80fd5b634e487b7160e01b5f52604160045260245ffd5b5f8060408385031215610742575f80fd5b82359150602083013567ffffffffffffffff80821115610760575f80fd5b818501915085601f830112610773575f80fd5b8135818111156107855761078561071d565b604051601f8201601f19908116603f011681019083821181831017156107ad576107ad61071d565b816040528281528860208487010111156107c5575f80fd5b826020860160208301375f6020848301015280955050505050509250929050565b6001600160a01b03811681146107fa575f80fd5b50565b5f805f8060608587031215610810575f80fd5b843561081b816107e6565b935060208501359250604085013567ffffffffffffffff8082111561083e575f80fd5b818701915087601f830112610851575f80fd5b81358181111561085f575f80fd5b886020828501011115610870575f80fd5b95989497505060200194505050565b5f5b83811015610899578181015183820152602001610881565b50505f910152565b5f81518084526108b881602086016020860161087f565b601f01601f19169290920160200192915050565b602081525f61044260208301846108a1565b5f805f606084860312156108f0575f80fd5b835192506020840151610902816107e6565b80925050604084015190509250925092565b5f60208284031215610924575f80fd5b8151610442816107e6565b818382375f9101908152919050565b818103818111156101b257634e487b7160e01b5f52601160045260245ffd5b634e487b7160e01b5f52602160045260245ffd5b828152604060208201525f61098960408301846108a1565b949350505050565b5f82516109a281846020870161087f565b9190910192915050565b5f602082840312156109bc575f80fd5b505191905056fea26469706673582212201b42b45ad9f24b509a66119a7bbe5cd2f4c0aafb7b467cd53f3bf18bba5aa2f664736f6c63430008140033",
					"opcodes": "PUSH1 0x80 PUSH1 0x40 MSTORE CALLVALUE DUP1 ISZERO PUSH2 0xF JUMPI PUSH0 DUP1 REVERT JUMPDEST POP PUSH2 0x9F9 DUP1 PUSH2 0x1D PUSH0 CODECOPY PUSH0 RETURN INVALID PUSH1 0x80 PUSH1 0x40 MSTORE PUSH1 0x4 CALLDATASIZE LT PUSH2 0x66 JUMPI PUSH0 CALLDATALOAD PUSH1 0xE0 SHR DUP1 PUSH4 0x9E5D4C49 GT PUSH2 0x41 JUMPI DUP1 PUSH4 0x9E5D4C49 EQ PUSH2 0x109 JUMPI DUP1 PUSH4 0xAFFED0E0 EQ PUSH2 0x129 JUMPI DUP1 PUSH4 0xFC0C546A EQ PUSH2 0x14B JUMPI PUSH0 DUP1 REVERT JUMPDEST DUP1 PUSH4 0x1FFC9A7 EQ PUSH2 0x71 JUMPI DUP1 PUSH4 0x1626BA7E EQ PUSH2 0xA5 JUMPI DUP1 PUSH4 0x8DA5CB5B EQ PUSH2 0xDD JUMPI PUSH0 DUP1 REVERT JUMPDEST CALLDATASIZE PUSH2 0x6D JUMPI STOP JUMPDEST PUSH0 DUP1 REVERT JUMPDEST CALLVALUE DUP1 ISZERO PUSH2 0x7C JUMPI PUSH0 DUP1 REVERT JUMPDEST POP PUSH2 0x90 PUSH2 0x8B CALLDATASIZE PUSH1 0x4 PUSH2 0x6F6 JUMP JUMPDEST PUSH2 0x182 JUMP JUMPDEST PUSH1 0x40 MLOAD SWAP1 ISZERO ISZERO DUP2 MSTORE PUSH1 0x20 ADD JUMPDEST PUSH1 0x40 MLOAD DUP1 SWAP2 SUB SWAP1 RETURN JUMPDEST CALLVALUE DUP1 ISZERO PUSH2 0xB0 JUMPI PUSH0 DUP1 REVERT JUMPDEST POP PUSH2 0xC4 PUSH2 0xBF CALLDATASIZE PUSH1 0x4 PUSH2 0x731 JUMP JUMPDEST PUSH2 0x1B8 JUMP JUMPDEST PUSH1 0x40 MLOAD PUSH1 0x1 PUSH1 0x1 PUSH1 0xE0 SHL SUB NOT SWAP1 SWAP2 AND DUP2 MSTORE PUSH1 0x20 ADD PUSH2 0x9C JUMP JUMPDEST CALLVALUE DUP1 ISZERO PUSH2 0xE8 JUMPI PUSH0 DUP1 REVERT JUMPDEST POP PUSH2 0xF1 PUSH2 0x1ED JUMP JUMPDEST PUSH1 0x40 MLOAD PUSH1 0x1 PUSH1 0x1 PUSH1 0xA0 SHL SUB SWAP1 SWAP2 AND DUP2 MSTORE PUSH1 0x20 ADD PUSH2 0x9C JUMP JUMPDEST PUSH2 0x11C PUSH2 0x117 CALLDATASIZE PUSH1 0x4 PUSH2 0x7FD JUMP JUMPDEST PUSH2 0x2D6 JUMP JUMPDEST PUSH1 0x40 MLOAD PUSH2 0x9C SWAP2 SWAP1 PUSH2 0x8CC JUMP JUMPDEST CALLVALUE DUP1 ISZERO PUSH2 0x134 JUMPI PUSH0 DUP1 REVERT JUMPDEST POP PUSH2 0x13D PUSH0 SLOAD DUP2 JUMP JUMPDEST PUSH1 0x40 MLOAD SWAP1 DUP2 MSTORE PUSH1 0x20 ADD PUSH2 0x9C JUMP JUMPDEST CALLVALUE DUP1 ISZERO PUSH2 0x156 JUMPI PUSH0 DUP1 REVERT JUMPDEST POP PUSH2 0x15F PUSH2 0x3AD JUMP JUMPDEST PUSH1 0x40 DUP1 MLOAD SWAP4 DUP5 MSTORE PUSH1 0x1 PUSH1 0x1 PUSH1 0xA0 SHL SUB SWAP1 SWAP3 AND PUSH1 0x20 DUP5 ADD MSTORE SWAP1 DUP3 ADD MSTORE PUSH1 0x60 ADD PUSH2 0x9C JUMP JUMPDEST PUSH0 PUSH1 0x1 PUSH1 0x1 PUSH1 0xE0 SHL SUB NOT DUP3 AND PUSH4 0x1FFC9A7 PUSH1 0xE0 SHL EQ DUP1 PUSH2 0x1B2 JUMPI POP PUSH1 0x1 PUSH1 0x1 PUSH1 0xE0 SHL SUB NOT DUP3 AND PUSH4 0x8014073 PUSH1 0xE3 SHL EQ JUMPDEST SWAP3 SWAP2 POP POP JUMP JUMPDEST PUSH0 DUP1 PUSH2 0x1CC PUSH2 0x1C5 PUSH2 0x1ED JUMP JUMPDEST DUP6 DUP6 PUSH2 0x3E8 JUMP JUMPDEST SWAP1 POP DUP1 ISZERO PUSH2 0x1E4 JUMPI POP PUSH4 0xB135D3F PUSH1 0xE1 SHL SWAP1 POP PUSH2 0x1B2 JUMP JUMPDEST POP PUSH0 SWAP4 SWAP3 POP POP POP JUMP JUMPDEST PUSH0 DUP1 PUSH0 DUP1 ADDRESS PUSH1 0x1 PUSH1 0x1 PUSH1 0xA0 SHL SUB AND PUSH4 0xFC0C546A PUSH1 0x40 MLOAD DUP2 PUSH4 0xFFFFFFFF AND PUSH1 0xE0 SHL DUP2 MSTORE PUSH1 0x4 ADD PUSH1 0x60 PUSH1 0x40 MLOAD DUP1 DUP4 SUB DUP2 DUP7 GAS STATICCALL ISZERO DUP1 ISZERO PUSH2 0x22D JUMPI RETURNDATASIZE PUSH0 DUP1 RETURNDATACOPY RETURNDATASIZE PUSH0 REVERT JUMPDEST POP POP POP POP PUSH1 0x40 MLOAD RETURNDATASIZE PUSH1 0x1F NOT PUSH1 0x1F DUP3 ADD AND DUP3 ADD DUP1 PUSH1 0x40 MSTORE POP DUP2 ADD SWAP1 PUSH2 0x251 SWAP2 SWAP1 PUSH2 0x8DE JUMP JUMPDEST SWAP3 POP SWAP3 POP SWAP3 POP CHAINID DUP4 EQ PUSH2 0x267 JUMPI PUSH0 SWAP4 POP POP POP POP SWAP1 JUMP JUMPDEST PUSH1 0x40 MLOAD PUSH4 0x31A9108F PUSH1 0xE1 SHL DUP2 MSTORE PUSH1 0x4 DUP2 ADD DUP3 SWAP1 MSTORE PUSH1 0x1 PUSH1 0x1 PUSH1 0xA0 SHL SUB DUP4 AND SWAP1 PUSH4 0x6352211E SWAP1 PUSH1 0x24 ADD PUSH1 0x20 PUSH1 0x40 MLOAD DUP1 DUP4 SUB DUP2 DUP7 GAS STATICCALL ISZERO DUP1 ISZERO PUSH2 0x2AA JUMPI RETURNDATASIZE PUSH0 DUP1 RETURNDATACOPY RETURNDATASIZE PUSH0 REVERT JUMPDEST POP POP POP POP PUSH1 0x40 MLOAD RETURNDATASIZE PUSH1 0x1F NOT PUSH1 0x1F DUP3 ADD AND DUP3 ADD DUP1 PUSH1 0x40 MSTORE POP DUP2 ADD SWAP1 PUSH2 0x2CE SWAP2 SWAP1 PUSH2 0x914 JUMP JUMPDEST SWAP4 POP POP POP POP SWAP1 JUMP JUMPDEST PUSH1 0x60 PUSH2 0x2E0 PUSH2 0x1ED JUMP JUMPDEST PUSH1 0x1 PUSH1 0x1 PUSH1 0xA0 SHL SUB AND CALLER PUSH1 0x1 PUSH1 0x1 PUSH1 0xA0 SHL SUB AND EQ PUSH2 0x337 JUMPI PUSH1 0x40 MLOAD PUSH3 0x461BCD PUSH1 0xE5 SHL DUP2 MSTORE PUSH1 0x20 PUSH1 0x4 DUP3 ADD MSTORE PUSH1 0xF PUSH1 0x24 DUP3 ADD MSTORE PUSH15 0x2737BA103A37B5B2B71037BBB732B9 PUSH1 0x89 SHL PUSH1 0x44 DUP3 ADD MSTORE PUSH1 0x64 ADD JUMPDEST PUSH1 0x40 MLOAD DUP1 SWAP2 SUB SWAP1 REVERT JUMPDEST PUSH0 DUP6 PUSH1 0x1 PUSH1 0x1 PUSH1 0xA0 SHL SUB AND DUP6 DUP6 DUP6 PUSH1 0x40 MLOAD PUSH2 0x353 SWAP3 SWAP2 SWAP1 PUSH2 0x92F JUMP JUMPDEST PUSH0 PUSH1 0x40 MLOAD DUP1 DUP4 SUB DUP2 DUP6 DUP8 GAS CALL SWAP3 POP POP POP RETURNDATASIZE DUP1 PUSH0 DUP2 EQ PUSH2 0x38D JUMPI PUSH1 0x40 MLOAD SWAP2 POP PUSH1 0x1F NOT PUSH1 0x3F RETURNDATASIZE ADD AND DUP3 ADD PUSH1 0x40 MSTORE RETURNDATASIZE DUP3 MSTORE RETURNDATASIZE PUSH0 PUSH1 0x20 DUP5 ADD RETURNDATACOPY PUSH2 0x392 JUMP JUMPDEST PUSH1 0x60 SWAP2 POP JUMPDEST POP SWAP3 POP SWAP1 POP DUP1 PUSH2 0x3A4 JUMPI DUP2 MLOAD PUSH1 0x20 DUP4 ADD REVERT JUMPDEST POP SWAP5 SWAP4 POP POP POP POP JUMP JUMPDEST PUSH0 DUP1 DUP1 ADDRESS DUP1 EXTCODESIZE SWAP1 PUSH2 0x3C9 SWAP1 PUSH2 0x3C3 PUSH1 0x60 DUP5 PUSH2 0x93E JUMP JUMPDEST DUP4 PUSH2 0x449 JUMP JUMPDEST DUP1 PUSH1 0x20 ADD SWAP1 MLOAD DUP2 ADD SWAP1 PUSH2 0x3DC SWAP2 SWAP1 PUSH2 0x8DE JUMP JUMPDEST SWAP4 POP SWAP4 POP SWAP4 POP POP SWAP1 SWAP2 SWAP3 JUMP JUMPDEST PUSH0 DUP1 PUSH0 PUSH2 0x3F5 DUP6 DUP6 PUSH2 0x4FA JUMP JUMPDEST POP SWAP1 SWAP3 POP SWAP1 POP PUSH0 DUP2 PUSH1 0x3 DUP2 GT ISZERO PUSH2 0x40E JUMPI PUSH2 0x40E PUSH2 0x95D JUMP JUMPDEST EQ DUP1 ISZERO PUSH2 0x42C JUMPI POP DUP6 PUSH1 0x1 PUSH1 0x1 PUSH1 0xA0 SHL SUB AND DUP3 PUSH1 0x1 PUSH1 0x1 PUSH1 0xA0 SHL SUB AND EQ JUMPDEST DUP1 PUSH2 0x43D JUMPI POP PUSH2 0x43D DUP7 DUP7 DUP7 PUSH2 0x543 JUMP JUMPDEST SWAP3 POP POP POP JUMPDEST SWAP4 SWAP3 POP POP POP JUMP JUMPDEST PUSH1 0x60 DUP4 EXTCODESIZE PUSH0 DUP2 SWAP1 SUB PUSH2 0x46A JUMPI POP POP PUSH1 0x40 DUP1 MLOAD PUSH1 0x20 DUP2 ADD SWAP1 SWAP2 MSTORE PUSH0 DUP2 MSTORE PUSH2 0x442 JUMP JUMPDEST DUP1 DUP5 GT ISZERO PUSH2 0x487 JUMPI POP POP PUSH1 0x40 DUP1 MLOAD PUSH1 0x20 DUP2 ADD SWAP1 SWAP2 MSTORE PUSH0 DUP2 MSTORE PUSH2 0x442 JUMP JUMPDEST DUP4 DUP4 LT ISZERO PUSH2 0x4B9 JUMPI PUSH1 0x40 MLOAD PUSH4 0x162544FD PUSH1 0xE1 SHL DUP2 MSTORE PUSH1 0x4 DUP2 ADD DUP3 SWAP1 MSTORE PUSH1 0x24 DUP2 ADD DUP6 SWAP1 MSTORE PUSH1 0x44 DUP2 ADD DUP5 SWAP1 MSTORE PUSH1 0x64 ADD PUSH2 0x32E JUMP JUMPDEST DUP4 DUP4 SUB DUP5 DUP3 SUB PUSH0 DUP3 DUP3 LT PUSH2 0x4CD JUMPI DUP3 PUSH2 0x4CF JUMP JUMPDEST DUP2 JUMPDEST PUSH1 0x40 DUP1 MLOAD PUSH1 0x3F DUP4 ADD PUSH1 0x1F NOT AND DUP2 ADD SWAP1 SWAP2 MSTORE DUP2 DUP2 MSTORE SWAP6 POP SWAP1 POP DUP1 DUP8 PUSH1 0x20 DUP8 ADD DUP11 EXTCODECOPY POP POP POP POP SWAP4 SWAP3 POP POP POP JUMP JUMPDEST PUSH0 DUP1 PUSH0 DUP4 MLOAD PUSH1 0x41 SUB PUSH2 0x531 JUMPI PUSH1 0x20 DUP5 ADD MLOAD PUSH1 0x40 DUP6 ADD MLOAD PUSH1 0x60 DUP7 ADD MLOAD PUSH0 BYTE PUSH2 0x523 DUP9 DUP3 DUP6 DUP6 PUSH2 0x62E JUMP JUMPDEST SWAP6 POP SWAP6 POP SWAP6 POP POP POP POP PUSH2 0x53C JUMP JUMPDEST POP POP DUP2 MLOAD PUSH0 SWAP2 POP PUSH1 0x2 SWAP1 JUMPDEST SWAP3 POP SWAP3 POP SWAP3 JUMP JUMPDEST PUSH0 DUP1 PUSH0 DUP6 PUSH1 0x1 PUSH1 0x1 PUSH1 0xA0 SHL SUB AND DUP6 DUP6 PUSH1 0x40 MLOAD PUSH1 0x24 ADD PUSH2 0x563 SWAP3 SWAP2 SWAP1 PUSH2 0x971 JUMP JUMPDEST PUSH1 0x40 DUP1 MLOAD PUSH1 0x1F NOT DUP2 DUP5 SUB ADD DUP2 MSTORE SWAP2 DUP2 MSTORE PUSH1 0x20 DUP3 ADD DUP1 MLOAD PUSH28 0xFFFFFFFFFFFFFFFFFFFFFFFFFFFFFFFFFFFFFFFFFFFFFFFFFFFFFFFF AND PUSH4 0xB135D3F PUSH1 0xE1 SHL OR SWAP1 MSTORE MLOAD PUSH2 0x5AD SWAP2 SWAP1 PUSH2 0x991 JUMP JUMPDEST PUSH0 PUSH1 0x40 MLOAD DUP1 DUP4 SUB DUP2 DUP6 GAS STATICCALL SWAP2 POP POP RETURNDATASIZE DUP1 PUSH0 DUP2 EQ PUSH2 0x5E5 JUMPI PUSH1 0x40 MLOAD SWAP2 POP PUSH1 0x1F NOT PUSH1 0x3F RETURNDATASIZE ADD AND DUP3 ADD PUSH1 0x40 MSTORE RETURNDATASIZE DUP3 MSTORE RETURNDATASIZE PUSH0 PUSH1 0x20 DUP5 ADD RETURNDATACOPY PUSH2 0x5EA JUMP JUMPDEST PUSH1 0x60 SWAP2 POP JUMPDEST POP SWAP2 POP SWAP2 POP DUP2 DUP1 ISZERO PUSH2 0x5FE JUMPI POP PUSH1 0x20 DUP2 MLOAD LT ISZERO JUMPDEST DUP1 ISZERO PUSH2 0x43D JUMPI POP DUP1 MLOAD PUSH4 0xB135D3F PUSH1 0xE1 SHL SWAP1 PUSH2 0x623 SWAP1 DUP4 ADD PUSH1 0x20 SWAP1 DUP2 ADD SWAP1 DUP5 ADD PUSH2 0x9AC JUMP JUMPDEST EQ SWAP7 SWAP6 POP POP POP POP POP POP JUMP JUMPDEST PUSH0 DUP1 DUP1 PUSH32 0x7FFFFFFFFFFFFFFFFFFFFFFFFFFFFFFF5D576E7357A4501DDFE92F46681B20A0 DUP5 GT ISZERO PUSH2 0x667 JUMPI POP PUSH0 SWAP2 POP PUSH1 0x3 SWAP1 POP DUP3 PUSH2 0x6EC JUMP JUMPDEST PUSH1 0x40 DUP1 MLOAD PUSH0 DUP1 DUP3 MSTORE PUSH1 0x20 DUP3 ADD DUP1 DUP5 MSTORE DUP11 SWAP1 MSTORE PUSH1 0xFF DUP10 AND SWAP3 DUP3 ADD SWAP3 SWAP1 SWAP3 MSTORE PUSH1 0x60 DUP2 ADD DUP8 SWAP1 MSTORE PUSH1 0x80 DUP2 ADD DUP7 SWAP1 MSTORE PUSH1 0x1 SWAP1 PUSH1 0xA0 ADD PUSH1 0x20 PUSH1 0x40 MLOAD PUSH1 0x20 DUP2 SUB SWAP1 DUP1 DUP5 SUB SWAP1 DUP6 GAS STATICCALL ISZERO DUP1 ISZERO PUSH2 0x6B8 JUMPI RETURNDATASIZE PUSH0 DUP1 RETURNDATACOPY RETURNDATASIZE PUSH0 REVERT JUMPDEST POP POP PUSH1 0x40 MLOAD PUSH1 0x1F NOT ADD MLOAD SWAP2 POP POP PUSH1 0x1 PUSH1 0x1 PUSH1 0xA0 SHL SUB DUP2 AND PUSH2 0x6E3 JUMPI POP PUSH0 SWAP3 POP PUSH1 0x1 SWAP2 POP DUP3 SWAP1 POP PUSH2 0x6EC JUMP JUMPDEST SWAP3 POP PUSH0 SWAP2 POP DUP2 SWAP1 POP JUMPDEST SWAP5 POP SWAP5 POP SWAP5 SWAP2 POP POP JUMP JUMPDEST PUSH0 PUSH1 0x20 DUP3 DUP5 SUB SLT ISZERO PUSH2 0x706 JUMPI PUSH0 DUP1 REVERT JUMPDEST DUP2 CALLDATALOAD PUSH1 0x1 PUSH1 0x1 PUSH1 0xE0 SHL SUB NOT DUP2 AND DUP2 EQ PUSH2 0x442 JUMPI PUSH0 DUP1 REVERT JUMPDEST PUSH4 0x4E487B71 PUSH1 0xE0 SHL PUSH0 MSTORE PUSH1 0x41 PUSH1 0x4 MSTORE PUSH1 0x24 PUSH0 REVERT JUMPDEST PUSH0 DUP1 PUSH1 0x40 DUP4 DUP6 SUB SLT ISZERO PUSH2 0x742 JUMPI PUSH0 DUP1 REVERT JUMPDEST DUP3 CALLDATALOAD SWAP2 POP PUSH1 0x20 DUP4 ADD CALLDATALOAD PUSH8 0xFFFFFFFFFFFFFFFF DUP1 DUP3 GT ISZERO PUSH2 0x760 JUMPI PUSH0 DUP1 REVERT JUMPDEST DUP2 DUP6 ADD SWAP2 POP DUP6 PUSH1 0x1F DUP4 ADD SLT PUSH2 0x773 JUMPI PUSH0 DUP1 REVERT JUMPDEST DUP2 CALLDATALOAD DUP2 DUP2 GT ISZERO PUSH2 0x785 JUMPI PUSH2 0x785 PUSH2 0x71D JUMP JUMPDEST PUSH1 0x40 MLOAD PUSH1 0x1F DUP3 ADD PUSH1 0x1F NOT SWAP1 DUP2 AND PUSH1 0x3F ADD AND DUP2 ADD SWAP1 DUP4 DUP3 GT DUP2 DUP4 LT OR ISZERO PUSH2 0x7AD JUMPI PUSH2 0x7AD PUSH2 0x71D JUMP JUMPDEST DUP2 PUSH1 0x40 MSTORE DUP3 DUP2 MSTORE DUP9 PUSH1 0x20 DUP5 DUP8 ADD ADD GT ISZERO PUSH2 0x7C5 JUMPI PUSH0 DUP1 REVERT JUMPDEST DUP3 PUSH1 0x20 DUP7 ADD PUSH1 0x20 DUP4 ADD CALLDATACOPY PUSH0 PUSH1 0x20 DUP5 DUP4 ADD ADD MSTORE DUP1 SWAP6 POP POP POP POP POP POP SWAP3 POP SWAP3 SWAP1 POP JUMP JUMPDEST PUSH1 0x1 PUSH1 0x1 PUSH1 0xA0 SHL SUB DUP2 AND DUP2 EQ PUSH2 0x7FA JUMPI PUSH0 DUP1 REVERT JUMPDEST POP JUMP JUMPDEST PUSH0 DUP1 PUSH0 DUP1 PUSH1 0x60 DUP6 DUP8 SUB SLT ISZERO PUSH2 0x810 JUMPI PUSH0 DUP1 REVERT JUMPDEST DUP5 CALLDATALOAD PUSH2 0x81B DUP2 PUSH2 0x7E6 JUMP JUMPDEST SWAP4 POP PUSH1 0x20 DUP6 ADD CALLDATALOAD SWAP3 POP PUSH1 0x40 DUP6 ADD CALLDATALOAD PUSH8 0xFFFFFFFFFFFFFFFF DUP1 DUP3 GT ISZERO PUSH2 0x83E JUMPI PUSH0 DUP1 REVERT JUMPDEST DUP2 DUP8 ADD SWAP2 POP DUP8 PUSH1 0x1F DUP4 ADD SLT PUSH2 0x851 JUMPI PUSH0 DUP1 REVERT JUMPDEST DUP2 CALLDATALOAD DUP2 DUP2 GT ISZERO PUSH2 0x85F JUMPI PUSH0 DUP1 REVERT JUMPDEST DUP9 PUSH1 0x20 DUP3 DUP6 ADD ADD GT ISZERO PUSH2 0x870 JUMPI PUSH0 DUP1 REVERT JUMPDEST SWAP6 SWAP9 SWAP5 SWAP8 POP POP PUSH1 0x20 ADD SWAP5 POP POP POP JUMP JUMPDEST PUSH0 JUMPDEST DUP4 DUP2 LT ISZERO PUSH2 0x899 JUMPI DUP2 DUP2 ADD MLOAD DUP4 DUP3 ADD MSTORE PUSH1 0x20 ADD PUSH2 0x881 JUMP JUMPDEST POP POP PUSH0 SWAP2 ADD MSTORE JUMP JUMPDEST PUSH0 DUP2 MLOAD DUP1 DUP5 MSTORE PUSH2 0x8B8 DUP2 PUSH1 0x20 DUP7 ADD PUSH1 0x20 DUP7 ADD PUSH2 0x87F JUMP JUMPDEST PUSH1 0x1F ADD PUSH1 0x1F NOT AND SWAP3 SWAP1 SWAP3 ADD PUSH1 0x20 ADD SWAP3 SWAP2 POP POP JUMP JUMPDEST PUSH1 0x20 DUP2 MSTORE PUSH0 PUSH2 0x442 PUSH1 0x20 DUP4 ADD DUP5 PUSH2 0x8A1 JUMP JUMPDEST PUSH0 DUP1 PUSH0 PUSH1 0x60 DUP5 DUP7 SUB SLT ISZERO PUSH2 0x8F0 JUMPI PUSH0 DUP1 REVERT JUMPDEST DUP4 MLOAD SWAP3 POP PUSH1 0x20 DUP5 ADD MLOAD PUSH2 0x902 DUP2 PUSH2 0x7E6 JUMP JUMPDEST DUP1 SWAP3 POP POP PUSH1 0x40 DUP5 ADD MLOAD SWAP1 POP SWAP3 POP SWAP3 POP SWAP3 JUMP JUMPDEST PUSH0 PUSH1 0x20 DUP3 DUP5 SUB SLT ISZERO PUSH2 0x924 JUMPI PUSH0 DUP1 REVERT JUMPDEST DUP2 MLOAD PUSH2 0x442 DUP2 PUSH2 0x7E6 JUMP JUMPDEST DUP2 DUP4 DUP3 CALLDATACOPY PUSH0 SWAP2 ADD SWAP1 DUP2 MSTORE SWAP2 SWAP1 POP JUMP JUMPDEST DUP2 DUP2 SUB DUP2 DUP2 GT ISZERO PUSH2 0x1B2 JUMPI PUSH4 0x4E487B71 PUSH1 0xE0 SHL PUSH0 MSTORE PUSH1 0x11 PUSH1 0x4 MSTORE PUSH1 0x24 PUSH0 REVERT JUMPDEST PUSH4 0x4E487B71 PUSH1 0xE0 SHL PUSH0 MSTORE PUSH1 0x21 PUSH1 0x4 MSTORE PUSH1 0x24 PUSH0 REVERT JUMPDEST DUP3 DUP2 MSTORE PUSH1 0x40 PUSH1 0x20 DUP3 ADD MSTORE PUSH0 PUSH2 0x989 PUSH1 0x40 DUP4 ADD DUP5 PUSH2 0x8A1 JUMP JUMPDEST SWAP5 SWAP4 POP POP POP POP JUMP JUMPDEST PUSH0 DUP3 MLOAD PUSH2 0x9A2 DUP2 DUP5 PUSH1 0x20 DUP8 ADD PUSH2 0x87F JUMP JUMPDEST SWAP2 SWAP1 SWAP2 ADD SWAP3 SWAP2 POP POP JUMP JUMPDEST PUSH0 PUSH1 0x20 DUP3 DUP5 SUB SLT ISZERO PUSH2 0x9BC JUMPI PUSH0 DUP1 REVERT JUMPDEST POP MLOAD SWAP2 SWAP1 POP JUMP INVALID LOG2 PUSH5 0x6970667358 0x22 SLT KECCAK256 SHL TIMESTAMP 0xB4 GAS 0xD9 CALLCODE 0x4B POP SWAP11 PUSH7 0x119A7BBE5CD2F4 0xC0 0xAA 0xFB PUSH28 0x467CD53F3BF18BBA5AA2F664736F6C63430008140033000000000000 "
				},
				"gasEstimates": {
					"creation": {
						"codeDepositCost": "510600",
						"executionCost": "541",
						"totalCost": "511141"
					},
					"external": {
						"executeCall(address,uint256,bytes)": "infinite",
						"isValidSignature(bytes32,bytes)": "infinite",
						"nonce()": "2315",
						"owner()": "infinite",
						"supportsInterface(bytes4)": "424",
						"token()": "infinite"
					}
				},
				"methodIdentifiers": {
					"executeCall(address,uint256,bytes)": "9e5d4c49",
					"isValidSignature(bytes32,bytes)": "1626ba7e",
					"nonce()": "affed0e0",
					"owner()": "8da5cb5b",
					"supportsInterface(bytes4)": "01ffc9a7",
					"token()": "fc0c546a"
				}
			},
			"storageLayout": {
				"storage": [
					{
						"astId": 19,
						"contract": "EthGlobal/smart-contract/example6551.sol:ExampleERC6551Account",
						"label": "nonce",
						"offset": 0,
						"slot": "0",
						"type": "t_uint256"
					}
				],
				"types": {
					"t_uint256": {
						"encoding": "inplace",
						"label": "uint256",
						"numberOfBytes": "32"
					}
				}
			},
			"userdoc": {
				"kind": "user",
				"methods": {},
				"version": 1
			}
		}
	}
}